{
  "contractName": "TestCoin",
  "abi": [
    {
      "inputs": [
        {
          "internalType": "string",
          "name": "_name",
          "type": "string"
        },
        {
          "internalType": "string",
          "name": "_symbol",
          "type": "string"
        }
      ],
      "stateMutability": "nonpayable",
      "type": "constructor"
    },
    {
      "anonymous": false,
      "inputs": [
        {
          "indexed": true,
          "internalType": "address",
          "name": "owner",
          "type": "address"
        },
        {
          "indexed": true,
          "internalType": "address",
          "name": "approved",
          "type": "address"
        },
        {
          "indexed": true,
          "internalType": "uint256",
          "name": "tokenId",
          "type": "uint256"
        }
      ],
      "name": "Approval",
      "type": "event"
    },
    {
      "anonymous": false,
      "inputs": [
        {
          "indexed": true,
          "internalType": "address",
          "name": "owner",
          "type": "address"
        },
        {
          "indexed": true,
          "internalType": "address",
          "name": "operator",
          "type": "address"
        },
        {
          "indexed": false,
          "internalType": "bool",
          "name": "approved",
          "type": "bool"
        }
      ],
      "name": "ApprovalForAll",
      "type": "event"
    },
    {
      "anonymous": false,
      "inputs": [
        {
          "indexed": true,
          "internalType": "address",
          "name": "previousOwner",
          "type": "address"
        },
        {
          "indexed": true,
          "internalType": "address",
          "name": "newOwner",
          "type": "address"
        }
      ],
      "name": "OwnershipTransferred",
      "type": "event"
    },
    {
      "anonymous": false,
      "inputs": [
        {
          "indexed": true,
          "internalType": "address",
          "name": "from",
          "type": "address"
        },
        {
          "indexed": true,
          "internalType": "address",
          "name": "to",
          "type": "address"
        },
        {
          "indexed": true,
          "internalType": "uint256",
          "name": "tokenId",
          "type": "uint256"
        }
      ],
      "name": "Transfer",
      "type": "event"
    },
    {
      "inputs": [
        {
          "internalType": "address",
          "name": "to",
          "type": "address"
        },
        {
          "internalType": "uint256",
          "name": "tokenId",
          "type": "uint256"
        }
      ],
      "name": "approve",
      "outputs": [],
      "stateMutability": "nonpayable",
      "type": "function"
    },
    {
      "inputs": [
        {
          "internalType": "address",
          "name": "owner",
          "type": "address"
        }
      ],
      "name": "balanceOf",
      "outputs": [
        {
          "internalType": "uint256",
          "name": "",
          "type": "uint256"
        }
      ],
      "stateMutability": "view",
      "type": "function"
    },
    {
      "inputs": [
        {
          "internalType": "uint256",
          "name": "tokenId",
          "type": "uint256"
        }
      ],
      "name": "getApproved",
      "outputs": [
        {
          "internalType": "address",
          "name": "",
          "type": "address"
        }
      ],
      "stateMutability": "view",
      "type": "function"
    },
    {
      "inputs": [
        {
          "internalType": "address",
          "name": "owner",
          "type": "address"
        },
        {
          "internalType": "address",
          "name": "operator",
          "type": "address"
        }
      ],
      "name": "isApprovedForAll",
      "outputs": [
        {
          "internalType": "bool",
          "name": "",
          "type": "bool"
        }
      ],
      "stateMutability": "view",
      "type": "function"
    },
    {
      "inputs": [],
      "name": "name",
      "outputs": [
        {
          "internalType": "string",
          "name": "",
          "type": "string"
        }
      ],
      "stateMutability": "view",
      "type": "function"
    },
    {
      "inputs": [],
      "name": "owner",
      "outputs": [
        {
          "internalType": "address",
          "name": "",
          "type": "address"
        }
      ],
      "stateMutability": "view",
      "type": "function"
    },
    {
      "inputs": [
        {
          "internalType": "uint256",
          "name": "tokenId",
          "type": "uint256"
        }
      ],
      "name": "ownerOf",
      "outputs": [
        {
          "internalType": "address",
          "name": "",
          "type": "address"
        }
      ],
      "stateMutability": "view",
      "type": "function"
    },
    {
      "inputs": [],
      "name": "renounceOwnership",
      "outputs": [],
      "stateMutability": "nonpayable",
      "type": "function"
    },
    {
      "inputs": [
        {
          "internalType": "address",
          "name": "from",
          "type": "address"
        },
        {
          "internalType": "address",
          "name": "to",
          "type": "address"
        },
        {
          "internalType": "uint256",
          "name": "tokenId",
          "type": "uint256"
        }
      ],
      "name": "safeTransferFrom",
      "outputs": [],
      "stateMutability": "nonpayable",
      "type": "function"
    },
    {
      "inputs": [
        {
          "internalType": "address",
          "name": "from",
          "type": "address"
        },
        {
          "internalType": "address",
          "name": "to",
          "type": "address"
        },
        {
          "internalType": "uint256",
          "name": "tokenId",
          "type": "uint256"
        },
        {
          "internalType": "bytes",
          "name": "_data",
          "type": "bytes"
        }
      ],
      "name": "safeTransferFrom",
      "outputs": [],
      "stateMutability": "nonpayable",
      "type": "function"
    },
    {
      "inputs": [
        {
          "internalType": "address",
          "name": "operator",
          "type": "address"
        },
        {
          "internalType": "bool",
          "name": "approved",
          "type": "bool"
        }
      ],
      "name": "setApprovalForAll",
      "outputs": [],
      "stateMutability": "nonpayable",
      "type": "function"
    },
    {
      "inputs": [
        {
          "internalType": "bytes4",
          "name": "interfaceId",
          "type": "bytes4"
        }
      ],
      "name": "supportsInterface",
      "outputs": [
        {
          "internalType": "bool",
          "name": "",
          "type": "bool"
        }
      ],
      "stateMutability": "view",
      "type": "function"
    },
    {
      "inputs": [],
      "name": "symbol",
      "outputs": [
        {
          "internalType": "string",
          "name": "",
          "type": "string"
        }
      ],
      "stateMutability": "view",
      "type": "function"
    },
    {
      "inputs": [
        {
          "internalType": "uint256",
          "name": "index",
          "type": "uint256"
        }
      ],
      "name": "tokenByIndex",
      "outputs": [
        {
          "internalType": "uint256",
          "name": "",
          "type": "uint256"
        }
      ],
      "stateMutability": "view",
      "type": "function"
    },
    {
      "inputs": [
        {
          "internalType": "address",
          "name": "owner",
          "type": "address"
        },
        {
          "internalType": "uint256",
          "name": "index",
          "type": "uint256"
        }
      ],
      "name": "tokenOfOwnerByIndex",
      "outputs": [
        {
          "internalType": "uint256",
          "name": "",
          "type": "uint256"
        }
      ],
      "stateMutability": "view",
      "type": "function"
    },
    {
      "inputs": [
        {
          "internalType": "uint256",
          "name": "tokenId",
          "type": "uint256"
        }
      ],
      "name": "tokenURI",
      "outputs": [
        {
          "internalType": "string",
          "name": "",
          "type": "string"
        }
      ],
      "stateMutability": "view",
      "type": "function"
    },
    {
      "inputs": [],
      "name": "totalSupply",
      "outputs": [
        {
          "internalType": "uint256",
          "name": "",
          "type": "uint256"
        }
      ],
      "stateMutability": "view",
      "type": "function"
    },
    {
      "inputs": [
        {
          "internalType": "address",
          "name": "from",
          "type": "address"
        },
        {
          "internalType": "address",
          "name": "to",
          "type": "address"
        },
        {
          "internalType": "uint256",
          "name": "tokenId",
          "type": "uint256"
        }
      ],
      "name": "transferFrom",
      "outputs": [],
      "stateMutability": "nonpayable",
      "type": "function"
    },
    {
      "inputs": [
        {
          "internalType": "address",
          "name": "newOwner",
          "type": "address"
        }
      ],
      "name": "transferOwnership",
      "outputs": [],
      "stateMutability": "nonpayable",
      "type": "function"
    }
  ],
  "bytecode": "0x60806040523480156200001157600080fd5b506040516200340a3803806200340a833981810160405281019062000037919062000299565b81818160009080519060200190620000519291906200016b565b5080600190805190602001906200006a9291906200016b565b5050506001600a8190555062000095620000896200009d60201b60201c565b620000a560201b60201c565b5050620004a2565b600033905090565b6000600b60009054906101000a900473ffffffffffffffffffffffffffffffffffffffff16905081600b60006101000a81548173ffffffffffffffffffffffffffffffffffffffff021916908373ffffffffffffffffffffffffffffffffffffffff1602179055508173ffffffffffffffffffffffffffffffffffffffff168173ffffffffffffffffffffffffffffffffffffffff167f8be0079c531659141344cd1fd0a4f28419497f9722a3daafe3b4186f6b6457e060405160405180910390a35050565b8280546200017990620003b3565b90600052602060002090601f0160209004810192826200019d5760008555620001e9565b82601f10620001b857805160ff1916838001178555620001e9565b82800160010185558215620001e9579182015b82811115620001e8578251825591602001919060010190620001cb565b5b509050620001f89190620001fc565b5090565b5b8082111562000217576000816000905550600101620001fd565b5090565b6000620002326200022c8462000347565b6200031e565b90508281526020810184848401111562000251576200025062000482565b5b6200025e8482856200037d565b509392505050565b600082601f8301126200027e576200027d6200047d565b5b8151620002908482602086016200021b565b91505092915050565b60008060408385031215620002b357620002b26200048c565b5b600083015167ffffffffffffffff811115620002d457620002d362000487565b5b620002e28582860162000266565b925050602083015167ffffffffffffffff81111562000306576200030562000487565b5b620003148582860162000266565b9150509250929050565b60006200032a6200033d565b9050620003388282620003e9565b919050565b6000604051905090565b600067ffffffffffffffff8211156200036557620003646200044e565b5b620003708262000491565b9050602081019050919050565b60005b838110156200039d57808201518184015260208101905062000380565b83811115620003ad576000848401525b50505050565b60006002820490506001821680620003cc57607f821691505b60208210811415620003e357620003e26200041f565b5b50919050565b620003f48262000491565b810181811067ffffffffffffffff821117156200041657620004156200044e565b5b80604052505050565b7f4e487b7100000000000000000000000000000000000000000000000000000000600052602260045260246000fd5b7f4e487b7100000000000000000000000000000000000000000000000000000000600052604160045260246000fd5b600080fd5b600080fd5b600080fd5b600080fd5b6000601f19601f8301169050919050565b612f5880620004b26000396000f3fe608060405234801561001057600080fd5b50600436106101215760003560e01c80636352211e116100ad578063a22cb46511610071578063a22cb4651461031c578063b88d4fde14610338578063c87b56dd14610354578063e985e9c514610384578063f2fde38b146103b457610121565b80636352211e1461027657806370a08231146102a6578063715018a6146102d65780638da5cb5b146102e057806395d89b41146102fe57610121565b806318160ddd116100f457806318160ddd146101c057806323b872dd146101de5780632f745c59146101fa57806342842e0e1461022a5780634f6ccce71461024657610121565b806301ffc9a71461012657806306fdde0314610156578063081812fc14610174578063095ea7b3146101a4575b600080fd5b610140600480360381019061013b9190611f92565b6103d0565b60405161014d91906123a4565b60405180910390f35b61015e61044a565b60405161016b91906123bf565b60405180910390f35b61018e60048036038101906101899190611fec565b6104dc565b60405161019b919061233d565b60405180910390f35b6101be60048036038101906101b99190611f52565b610561565b005b6101c8610679565b6040516101d591906125e1565b60405180910390f35b6101f860048036038101906101f39190611e3c565b610686565b005b610214600480360381019061020f9190611f52565b6106e6565b60405161022191906125e1565b60405180910390f35b610244600480360381019061023f9190611e3c565b61078b565b005b610260600480360381019061025b9190611fec565b6107ab565b60405161026d91906125e1565b60405180910390f35b610290600480360381019061028b9190611fec565b61081c565b60405161029d919061233d565b60405180910390f35b6102c060048036038101906102bb9190611dcf565b6108ce565b6040516102cd91906125e1565b60405180910390f35b6102de610986565b005b6102e8610a0e565b6040516102f5919061233d565b60405180910390f35b610306610a38565b60405161031391906123bf565b60405180910390f35b61033660048036038101906103319190611f12565b610aca565b005b610352600480360381019061034d9190611e8f565b610c4b565b005b61036e60048036038101906103699190611fec565b610cad565b60405161037b91906123bf565b60405180910390f35b61039e60048036038101906103999190611dfc565b610d54565b6040516103ab91906123a4565b60405180910390f35b6103ce60048036038101906103c99190611dcf565b610de8565b005b60007f780e9d63000000000000000000000000000000000000000000000000000000007bffffffffffffffffffffffffffffffffffffffffffffffffffffffff1916827bffffffffffffffffffffffffffffffffffffffffffffffffffffffff19161480610443575061044282610ee0565b5b9050919050565b60606000805461045990612806565b80601f016020809104026020016040519081016040528092919081815260200182805461048590612806565b80156104d25780601f106104a7576101008083540402835291602001916104d2565b820191906000526020600020905b8154815290600101906020018083116104b557829003601f168201915b5050505050905090565b60006104e782610fc2565b610526576040517f08c379a000000000000000000000000000000000000000000000000000000000815260040161051d90612501565b60405180910390fd5b6004600083815260200190815260200160002060009054906101000a900473ffffffffffffffffffffffffffffffffffffffff169050919050565b600061056c8261081c565b90508073ffffffffffffffffffffffffffffffffffffffff168373ffffffffffffffffffffffffffffffffffffffff1614156105dd576040517f08c379a00000000000000000000000000000000000000000000000000000000081526004016105d490612581565b60405180910390fd5b8073ffffffffffffffffffffffffffffffffffffffff166105fc61102e565b73ffffffffffffffffffffffffffffffffffffffff16148061062b575061062a8161062561102e565b610d54565b5b61066a576040517f08c379a0000000000000000000000000000000000000000000000000000000008152600401610661906124a1565b60405180910390fd5b6106748383611036565b505050565b6000600880549050905090565b61069761069161102e565b826110ef565b6106d6576040517f08c379a00000000000000000000000000000000000000000000000000000000081526004016106cd906125a1565b60405180910390fd5b6106e18383836111cd565b505050565b60006106f1836108ce565b8210610732576040517f08c379a0000000000000000000000000000000000000000000000000000000008152600401610729906123e1565b60405180910390fd5b600660008473ffffffffffffffffffffffffffffffffffffffff1673ffffffffffffffffffffffffffffffffffffffff168152602001908152602001600020600083815260200190815260200160002054905092915050565b6107a683838360405180602001604052806000815250610c4b565b505050565b60006107b5610679565b82106107f6576040517f08c379a00000000000000000000000000000000000000000000000000000000081526004016107ed906125c1565b60405180910390fd5b6008828154811061080a5761080961299f565b5b90600052602060002001549050919050565b6000806002600084815260200190815260200160002060009054906101000a900473ffffffffffffffffffffffffffffffffffffffff169050600073ffffffffffffffffffffffffffffffffffffffff168173ffffffffffffffffffffffffffffffffffffffff1614156108c5576040517f08c379a00000000000000000000000000000000000000000000000000000000081526004016108bc906124e1565b60405180910390fd5b80915050919050565b60008073ffffffffffffffffffffffffffffffffffffffff168273ffffffffffffffffffffffffffffffffffffffff16141561093f576040517f08c379a0000000000000000000000000000000000000000000000000000000008152600401610936906124c1565b60405180910390fd5b600360008373ffffffffffffffffffffffffffffffffffffffff1673ffffffffffffffffffffffffffffffffffffffff168152602001908152602001600020549050919050565b61098e61102e565b73ffffffffffffffffffffffffffffffffffffffff166109ac610a0e565b73ffffffffffffffffffffffffffffffffffffffff1614610a02576040517f08c379a00000000000000000000000000000000000000000000000000000000081526004016109f990612521565b60405180910390fd5b610a0c6000611429565b565b6000600b60009054906101000a900473ffffffffffffffffffffffffffffffffffffffff16905090565b606060018054610a4790612806565b80601f0160208091040260200160405190810160405280929190818152602001828054610a7390612806565b8015610ac05780601f10610a9557610100808354040283529160200191610ac0565b820191906000526020600020905b815481529060010190602001808311610aa357829003601f168201915b5050505050905090565b610ad261102e565b73ffffffffffffffffffffffffffffffffffffffff168273ffffffffffffffffffffffffffffffffffffffff161415610b40576040517f08c379a0000000000000000000000000000000000000000000000000000000008152600401610b3790612461565b60405180910390fd5b8060056000610b4d61102e565b73ffffffffffffffffffffffffffffffffffffffff1673ffffffffffffffffffffffffffffffffffffffff16815260200190815260200160002060008473ffffffffffffffffffffffffffffffffffffffff1673ffffffffffffffffffffffffffffffffffffffff16815260200190815260200160002060006101000a81548160ff0219169083151502179055508173ffffffffffffffffffffffffffffffffffffffff16610bfa61102e565b73ffffffffffffffffffffffffffffffffffffffff167f17307eab39ab6107e8899845ad3d59bd9653f200f220920489ca2b5937696c3183604051610c3f91906123a4565b60405180910390a35050565b610c5c610c5661102e565b836110ef565b610c9b576040517f08c379a0000000000000000000000000000000000000000000000000000000008152600401610c92906125a1565b60405180910390fd5b610ca7848484846114ef565b50505050565b6060610cb882610fc2565b610cf7576040517f08c379a0000000000000000000000000000000000000000000000000000000008152600401610cee90612561565b60405180910390fd5b6000610d0161154b565b90506000815111610d215760405180602001604052806000815250610d4c565b80610d2b84611562565b604051602001610d3c929190612319565b6040516020818303038152906040525b915050919050565b6000600560008473ffffffffffffffffffffffffffffffffffffffff1673ffffffffffffffffffffffffffffffffffffffff16815260200190815260200160002060008373ffffffffffffffffffffffffffffffffffffffff1673ffffffffffffffffffffffffffffffffffffffff16815260200190815260200160002060009054906101000a900460ff16905092915050565b610df061102e565b73ffffffffffffffffffffffffffffffffffffffff16610e0e610a0e565b73ffffffffffffffffffffffffffffffffffffffff1614610e64576040517f08c379a0000000000000000000000000000000000000000000000000000000008152600401610e5b90612521565b60405180910390fd5b600073ffffffffffffffffffffffffffffffffffffffff168173ffffffffffffffffffffffffffffffffffffffff161415610ed4576040517f08c379a0000000000000000000000000000000000000000000000000000000008152600401610ecb90612421565b60405180910390fd5b610edd81611429565b50565b60007f80ac58cd000000000000000000000000000000000000000000000000000000007bffffffffffffffffffffffffffffffffffffffffffffffffffffffff1916827bffffffffffffffffffffffffffffffffffffffffffffffffffffffff19161480610fab57507f5b5e139f000000000000000000000000000000000000000000000000000000007bffffffffffffffffffffffffffffffffffffffffffffffffffffffff1916827bffffffffffffffffffffffffffffffffffffffffffffffffffffffff1916145b80610fbb5750610fba826116c3565b5b9050919050565b60008073ffffffffffffffffffffffffffffffffffffffff166002600084815260200190815260200160002060009054906101000a900473ffffffffffffffffffffffffffffffffffffffff1673ffffffffffffffffffffffffffffffffffffffff1614159050919050565b600033905090565b816004600083815260200190815260200160002060006101000a81548173ffffffffffffffffffffffffffffffffffffffff021916908373ffffffffffffffffffffffffffffffffffffffff160217905550808273ffffffffffffffffffffffffffffffffffffffff166110a98361081c565b73ffffffffffffffffffffffffffffffffffffffff167f8c5be1e5ebec7d5bd14f71427d1e84f3dd0314c0f7b2291e5b200ac8c7c3b92560405160405180910390a45050565b60006110fa82610fc2565b611139576040517f08c379a000000000000000000000000000000000000000000000000000000000815260040161113090612481565b60405180910390fd5b60006111448361081c565b90508073ffffffffffffffffffffffffffffffffffffffff168473ffffffffffffffffffffffffffffffffffffffff1614806111b357508373ffffffffffffffffffffffffffffffffffffffff1661119b846104dc565b73ffffffffffffffffffffffffffffffffffffffff16145b806111c457506111c38185610d54565b5b91505092915050565b8273ffffffffffffffffffffffffffffffffffffffff166111ed8261081c565b73ffffffffffffffffffffffffffffffffffffffff1614611243576040517f08c379a000000000000000000000000000000000000000000000000000000000815260040161123a90612541565b60405180910390fd5b600073ffffffffffffffffffffffffffffffffffffffff168273ffffffffffffffffffffffffffffffffffffffff1614156112b3576040517f08c379a00000000000000000000000000000000000000000000000000000000081526004016112aa90612441565b60405180910390fd5b6112be83838361172d565b6112c9600082611036565b6001600360008573ffffffffffffffffffffffffffffffffffffffff1673ffffffffffffffffffffffffffffffffffffffff1681526020019081526020016000206000828254611319919061271c565b925050819055506001600360008473ffffffffffffffffffffffffffffffffffffffff1673ffffffffffffffffffffffffffffffffffffffff16815260200190815260200160002060008282546113709190612695565b92505081905550816002600083815260200190815260200160002060006101000a81548173ffffffffffffffffffffffffffffffffffffffff021916908373ffffffffffffffffffffffffffffffffffffffff160217905550808273ffffffffffffffffffffffffffffffffffffffff168473ffffffffffffffffffffffffffffffffffffffff167fddf252ad1be2c89b69c2b068fc378daa952ba7f163c4a11628f55a4df523b3ef60405160405180910390a4505050565b6000600b60009054906101000a900473ffffffffffffffffffffffffffffffffffffffff16905081600b60006101000a81548173ffffffffffffffffffffffffffffffffffffffff021916908373ffffffffffffffffffffffffffffffffffffffff1602179055508173ffffffffffffffffffffffffffffffffffffffff168173ffffffffffffffffffffffffffffffffffffffff167f8be0079c531659141344cd1fd0a4f28419497f9722a3daafe3b4186f6b6457e060405160405180910390a35050565b6114fa8484846111cd565b61150684848484611841565b611545576040517f08c379a000000000000000000000000000000000000000000000000000000000815260040161153c90612401565b60405180910390fd5b50505050565b606060405180602001604052806000815250905090565b606060008214156115aa576040518060400160405280600181526020017f300000000000000000000000000000000000000000000000000000000000000081525090506116be565b600082905060005b600082146115dc5780806115c590612869565b915050600a826115d591906126eb565b91506115b2565b60008167ffffffffffffffff8111156115f8576115f76129ce565b5b6040519080825280601f01601f19166020018201604052801561162a5781602001600182028036833780820191505090505b5090505b600085146116b757600182611643919061271c565b9150600a8561165291906128b2565b603061165e9190612695565b60f81b8183815181106116745761167361299f565b5b60200101907effffffffffffffffffffffffffffffffffffffffffffffffffffffffffffff1916908160001a905350600a856116b091906126eb565b945061162e565b8093505050505b919050565b60007f01ffc9a7000000000000000000000000000000000000000000000000000000007bffffffffffffffffffffffffffffffffffffffffffffffffffffffff1916827bffffffffffffffffffffffffffffffffffffffffffffffffffffffff1916149050919050565b6117388383836119d8565b600073ffffffffffffffffffffffffffffffffffffffff168373ffffffffffffffffffffffffffffffffffffffff16141561177b57611776816119dd565b6117ba565b8173ffffffffffffffffffffffffffffffffffffffff168373ffffffffffffffffffffffffffffffffffffffff16146117b9576117b88382611a26565b5b5b600073ffffffffffffffffffffffffffffffffffffffff168273ffffffffffffffffffffffffffffffffffffffff1614156117fd576117f881611b93565b61183c565b8273ffffffffffffffffffffffffffffffffffffffff168273ffffffffffffffffffffffffffffffffffffffff161461183b5761183a8282611c64565b5b5b505050565b60006118628473ffffffffffffffffffffffffffffffffffffffff16611ce3565b156119cb578373ffffffffffffffffffffffffffffffffffffffff1663150b7a0261188b61102e565b8786866040518563ffffffff1660e01b81526004016118ad9493929190612358565b602060405180830381600087803b1580156118c757600080fd5b505af19250505080156118f857506040513d601f19601f820116820180604052508101906118f59190611fbf565b60015b61197b573d8060008114611928576040519150601f19603f3d011682016040523d82523d6000602084013e61192d565b606091505b50600081511415611973576040517f08c379a000000000000000000000000000000000000000000000000000000000815260040161196a90612401565b60405180910390fd5b805181602001fd5b63150b7a0260e01b7bffffffffffffffffffffffffffffffffffffffffffffffffffffffff1916817bffffffffffffffffffffffffffffffffffffffffffffffffffffffff1916149150506119d0565b600190505b949350505050565b505050565b6008805490506009600083815260200190815260200160002081905550600881908060018154018082558091505060019003906000526020600020016000909190919091505550565b60006001611a33846108ce565b611a3d919061271c565b9050600060076000848152602001908152602001600020549050818114611b22576000600660008673ffffffffffffffffffffffffffffffffffffffff1673ffffffffffffffffffffffffffffffffffffffff168152602001908152602001600020600084815260200190815260200160002054905080600660008773ffffffffffffffffffffffffffffffffffffffff1673ffffffffffffffffffffffffffffffffffffffff168152602001908152602001600020600084815260200190815260200160002081905550816007600083815260200190815260200160002081905550505b6007600084815260200190815260200160002060009055600660008573ffffffffffffffffffffffffffffffffffffffff1673ffffffffffffffffffffffffffffffffffffffff16815260200190815260200160002060008381526020019081526020016000206000905550505050565b60006001600880549050611ba7919061271c565b9050600060096000848152602001908152602001600020549050600060088381548110611bd757611bd661299f565b5b906000526020600020015490508060088381548110611bf957611bf861299f565b5b906000526020600020018190555081600960008381526020019081526020016000208190555060096000858152602001908152602001600020600090556008805480611c4857611c47612970565b5b6001900381819060005260206000200160009055905550505050565b6000611c6f836108ce565b905081600660008573ffffffffffffffffffffffffffffffffffffffff1673ffffffffffffffffffffffffffffffffffffffff168152602001908152602001600020600083815260200190815260200160002081905550806007600084815260200190815260200160002081905550505050565b600080823b905060008111915050919050565b6000611d09611d0484612621565b6125fc565b905082815260208101848484011115611d2557611d24612a02565b5b611d308482856127c4565b509392505050565b600081359050611d4781612ec6565b92915050565b600081359050611d5c81612edd565b92915050565b600081359050611d7181612ef4565b92915050565b600081519050611d8681612ef4565b92915050565b600082601f830112611da157611da06129fd565b5b8135611db1848260208601611cf6565b91505092915050565b600081359050611dc981612f0b565b92915050565b600060208284031215611de557611de4612a0c565b5b6000611df384828501611d38565b91505092915050565b60008060408385031215611e1357611e12612a0c565b5b6000611e2185828601611d38565b9250506020611e3285828601611d38565b9150509250929050565b600080600060608486031215611e5557611e54612a0c565b5b6000611e6386828701611d38565b9350506020611e7486828701611d38565b9250506040611e8586828701611dba565b9150509250925092565b60008060008060808587031215611ea957611ea8612a0c565b5b6000611eb787828801611d38565b9450506020611ec887828801611d38565b9350506040611ed987828801611dba565b925050606085013567ffffffffffffffff811115611efa57611ef9612a07565b5b611f0687828801611d8c565b91505092959194509250565b60008060408385031215611f2957611f28612a0c565b5b6000611f3785828601611d38565b9250506020611f4885828601611d4d565b9150509250929050565b60008060408385031215611f6957611f68612a0c565b5b6000611f7785828601611d38565b9250506020611f8885828601611dba565b9150509250929050565b600060208284031215611fa857611fa7612a0c565b5b6000611fb684828501611d62565b91505092915050565b600060208284031215611fd557611fd4612a0c565b5b6000611fe384828501611d77565b91505092915050565b60006020828403121561200257612001612a0c565b5b600061201084828501611dba565b91505092915050565b61202281612750565b82525050565b61203181612762565b82525050565b600061204282612652565b61204c8185612668565b935061205c8185602086016127d3565b61206581612a11565b840191505092915050565b600061207b8261265d565b6120858185612679565b93506120958185602086016127d3565b61209e81612a11565b840191505092915050565b60006120b48261265d565b6120be818561268a565b93506120ce8185602086016127d3565b80840191505092915050565b60006120e7602b83612679565b91506120f282612a22565b604082019050919050565b600061210a603283612679565b915061211582612a71565b604082019050919050565b600061212d602683612679565b915061213882612ac0565b604082019050919050565b6000612150602483612679565b915061215b82612b0f565b604082019050919050565b6000612173601983612679565b915061217e82612b5e565b602082019050919050565b6000612196602c83612679565b91506121a182612b87565b604082019050919050565b60006121b9603883612679565b91506121c482612bd6565b604082019050919050565b60006121dc602a83612679565b91506121e782612c25565b604082019050919050565b60006121ff602983612679565b915061220a82612c74565b604082019050919050565b6000612222602c83612679565b915061222d82612cc3565b604082019050919050565b6000612245602083612679565b915061225082612d12565b602082019050919050565b6000612268602983612679565b915061227382612d3b565b604082019050919050565b600061228b602f83612679565b915061229682612d8a565b604082019050919050565b60006122ae602183612679565b91506122b982612dd9565b604082019050919050565b60006122d1603183612679565b91506122dc82612e28565b604082019050919050565b60006122f4602c83612679565b91506122ff82612e77565b604082019050919050565b612313816127ba565b82525050565b600061232582856120a9565b915061233182846120a9565b91508190509392505050565b60006020820190506123526000830184612019565b92915050565b600060808201905061236d6000830187612019565b61237a6020830186612019565b612387604083018561230a565b81810360608301526123998184612037565b905095945050505050565b60006020820190506123b96000830184612028565b92915050565b600060208201905081810360008301526123d98184612070565b905092915050565b600060208201905081810360008301526123fa816120da565b9050919050565b6000602082019050818103600083015261241a816120fd565b9050919050565b6000602082019050818103600083015261243a81612120565b9050919050565b6000602082019050818103600083015261245a81612143565b9050919050565b6000602082019050818103600083015261247a81612166565b9050919050565b6000602082019050818103600083015261249a81612189565b9050919050565b600060208201905081810360008301526124ba816121ac565b9050919050565b600060208201905081810360008301526124da816121cf565b9050919050565b600060208201905081810360008301526124fa816121f2565b9050919050565b6000602082019050818103600083015261251a81612215565b9050919050565b6000602082019050818103600083015261253a81612238565b9050919050565b6000602082019050818103600083015261255a8161225b565b9050919050565b6000602082019050818103600083015261257a8161227e565b9050919050565b6000602082019050818103600083015261259a816122a1565b9050919050565b600060208201905081810360008301526125ba816122c4565b9050919050565b600060208201905081810360008301526125da816122e7565b9050919050565b60006020820190506125f6600083018461230a565b92915050565b6000612606612617565b90506126128282612838565b919050565b6000604051905090565b600067ffffffffffffffff82111561263c5761263b6129ce565b5b61264582612a11565b9050602081019050919050565b600081519050919050565b600081519050919050565b600082825260208201905092915050565b600082825260208201905092915050565b600081905092915050565b60006126a0826127ba565b91506126ab836127ba565b9250827fffffffffffffffffffffffffffffffffffffffffffffffffffffffffffffffff038211156126e0576126df6128e3565b5b828201905092915050565b60006126f6826127ba565b9150612701836127ba565b92508261271157612710612912565b5b828204905092915050565b6000612727826127ba565b9150612732836127ba565b925082821015612745576127446128e3565b5b828203905092915050565b600061275b8261279a565b9050919050565b60008115159050919050565b60007fffffffff0000000000000000000000000000000000000000000000000000000082169050919050565b600073ffffffffffffffffffffffffffffffffffffffff82169050919050565b6000819050919050565b82818337600083830152505050565b60005b838110156127f15780820151818401526020810190506127d6565b83811115612800576000848401525b50505050565b6000600282049050600182168061281e57607f821691505b6020821081141561283257612831612941565b5b50919050565b61284182612a11565b810181811067ffffffffffffffff821117156128605761285f6129ce565b5b80604052505050565b6000612874826127ba565b91507fffffffffffffffffffffffffffffffffffffffffffffffffffffffffffffffff8214156128a7576128a66128e3565b5b600182019050919050565b60006128bd826127ba565b91506128c8836127ba565b9250826128d8576128d7612912565b5b828206905092915050565b7f4e487b7100000000000000000000000000000000000000000000000000000000600052601160045260246000fd5b7f4e487b7100000000000000000000000000000000000000000000000000000000600052601260045260246000fd5b7f4e487b7100000000000000000000000000000000000000000000000000000000600052602260045260246000fd5b7f4e487b7100000000000000000000000000000000000000000000000000000000600052603160045260246000fd5b7f4e487b7100000000000000000000000000000000000000000000000000000000600052603260045260246000fd5b7f4e487b7100000000000000000000000000000000000000000000000000000000600052604160045260246000fd5b600080fd5b600080fd5b600080fd5b600080fd5b6000601f19601f8301169050919050565b7f455243373231456e756d657261626c653a206f776e657220696e646578206f7560008201527f74206f6620626f756e6473000000000000000000000000000000000000000000602082015250565b7f4552433732313a207472616e7366657220746f206e6f6e20455243373231526560008201527f63656976657220696d706c656d656e7465720000000000000000000000000000602082015250565b7f4f776e61626c653a206e6577206f776e657220697320746865207a65726f206160008201527f6464726573730000000000000000000000000000000000000000000000000000602082015250565b7f4552433732313a207472616e7366657220746f20746865207a65726f2061646460008201527f7265737300000000000000000000000000000000000000000000000000000000602082015250565b7f4552433732313a20617070726f766520746f2063616c6c657200000000000000600082015250565b7f4552433732313a206f70657261746f7220717565727920666f72206e6f6e657860008201527f697374656e7420746f6b656e0000000000000000000000000000000000000000602082015250565b7f4552433732313a20617070726f76652063616c6c6572206973206e6f74206f7760008201527f6e6572206e6f7220617070726f76656420666f7220616c6c0000000000000000602082015250565b7f4552433732313a2062616c616e636520717565727920666f7220746865207a6560008201527f726f206164647265737300000000000000000000000000000000000000000000602082015250565b7f4552433732313a206f776e657220717565727920666f72206e6f6e657869737460008201527f656e7420746f6b656e0000000000000000000000000000000000000000000000602082015250565b7f4552433732313a20617070726f76656420717565727920666f72206e6f6e657860008201527f697374656e7420746f6b656e0000000000000000000000000000000000000000602082015250565b7f4f776e61626c653a2063616c6c6572206973206e6f7420746865206f776e6572600082015250565b7f4552433732313a207472616e73666572206f6620746f6b656e2074686174206960008201527f73206e6f74206f776e0000000000000000000000000000000000000000000000602082015250565b7f4552433732314d657461646174613a2055524920717565727920666f72206e6f60008201527f6e6578697374656e7420746f6b656e0000000000000000000000000000000000602082015250565b7f4552433732313a20617070726f76616c20746f2063757272656e74206f776e6560008201527f7200000000000000000000000000000000000000000000000000000000000000602082015250565b7f4552433732313a207472616e736665722063616c6c6572206973206e6f74206f60008201527f776e6572206e6f7220617070726f766564000000000000000000000000000000602082015250565b7f455243373231456e756d657261626c653a20676c6f62616c20696e646578206f60008201527f7574206f6620626f756e64730000000000000000000000000000000000000000602082015250565b612ecf81612750565b8114612eda57600080fd5b50565b612ee681612762565b8114612ef157600080fd5b50565b612efd8161276e565b8114612f0857600080fd5b50565b612f14816127ba565b8114612f1f57600080fd5b5056fea2646970667358221220677d201210fbf11bd97f0ed2161e594d33ee62010b3fc077a76cd31f2a932a9d64736f6c63430008060033",
  "immutableReferences": {},
  "source": "// SPDX-License-Identifier: MIT\r\npragma solidity 0.8.6;\r\n\r\nimport \"@openzeppelin/contracts/token/ERC721/extensions/ERC721Enumerable.sol\";\r\nimport \"@openzeppelin/contracts/security/ReentrancyGuard.sol\";\r\nimport \"@openzeppelin/contracts/access/Ownable.sol\";\r\n\r\ncontract TestCoin is ERC721Enumerable, ReentrancyGuard, Ownable {\r\n\t constructor (string memory _name, string memory _symbol) public ERC721(_name, _symbol) Ownable()\r\n    {\r\n    }\r\n\t\r\n}\r\n",
  "sourcePath": "D:\\HDD Documents\\GitHub\\testcoin\\contracts\\testcoin.sol",
  "compiler": {
    "name": "solc",
    "version": "0.8.6+commit.11564f7e.Emscripten.clang"
  },
  "schemaVersion": "3.4.3",
  "updatedAt": "2021-10-13T20:36:20.615Z",
  "devdoc": {
    "kind": "dev",
    "methods": {
      "approve(address,uint256)": {
        "details": "See {IERC721-approve}."
      },
      "balanceOf(address)": {
        "details": "See {IERC721-balanceOf}."
      },
      "getApproved(uint256)": {
        "details": "See {IERC721-getApproved}."
      },
      "isApprovedForAll(address,address)": {
        "details": "See {IERC721-isApprovedForAll}."
      },
      "name()": {
        "details": "See {IERC721Metadata-name}."
      },
      "owner()": {
        "details": "Returns the address of the current owner."
      },
      "ownerOf(uint256)": {
        "details": "See {IERC721-ownerOf}."
      },
      "renounceOwnership()": {
        "details": "Leaves the contract without owner. It will not be possible to call `onlyOwner` functions anymore. Can only be called by the current owner. NOTE: Renouncing ownership will leave the contract without an owner, thereby removing any functionality that is only available to the owner."
      },
      "safeTransferFrom(address,address,uint256)": {
        "details": "See {IERC721-safeTransferFrom}."
      },
      "safeTransferFrom(address,address,uint256,bytes)": {
        "details": "See {IERC721-safeTransferFrom}."
      },
      "setApprovalForAll(address,bool)": {
        "details": "See {IERC721-setApprovalForAll}."
      },
      "supportsInterface(bytes4)": {
        "details": "See {IERC165-supportsInterface}."
      },
      "symbol()": {
        "details": "See {IERC721Metadata-symbol}."
      },
      "tokenByIndex(uint256)": {
        "details": "See {IERC721Enumerable-tokenByIndex}."
      },
      "tokenOfOwnerByIndex(address,uint256)": {
        "details": "See {IERC721Enumerable-tokenOfOwnerByIndex}."
      },
      "tokenURI(uint256)": {
        "details": "See {IERC721Metadata-tokenURI}."
      },
      "totalSupply()": {
        "details": "See {IERC721Enumerable-totalSupply}."
      },
      "transferFrom(address,address,uint256)": {
        "details": "See {IERC721-transferFrom}."
      },
      "transferOwnership(address)": {
        "details": "Transfers ownership of the contract to a new account (`newOwner`). Can only be called by the current owner."
      }
    },
    "version": 1
  },
  "userdoc": {
    "kind": "user",
    "methods": {},
    "version": 1
  }
}