{
  "contractName": "TestCoin",
  "abi": [
    {
      "inputs": [
        {
          "internalType": "string",
          "name": "_name",
          "type": "string"
        },
        {
          "internalType": "string",
          "name": "_symbol",
          "type": "string"
        }
      ],
      "stateMutability": "nonpayable",
      "type": "constructor"
    },
    {
      "anonymous": false,
      "inputs": [
        {
          "indexed": true,
          "internalType": "address",
          "name": "owner",
          "type": "address"
        },
        {
          "indexed": true,
          "internalType": "address",
          "name": "approved",
          "type": "address"
        },
        {
          "indexed": true,
          "internalType": "uint256",
          "name": "tokenId",
          "type": "uint256"
        }
      ],
      "name": "Approval",
      "type": "event"
    },
    {
      "anonymous": false,
      "inputs": [
        {
          "indexed": true,
          "internalType": "address",
          "name": "owner",
          "type": "address"
        },
        {
          "indexed": true,
          "internalType": "address",
          "name": "operator",
          "type": "address"
        },
        {
          "indexed": false,
          "internalType": "bool",
          "name": "approved",
          "type": "bool"
        }
      ],
      "name": "ApprovalForAll",
      "type": "event"
    },
    {
      "anonymous": false,
      "inputs": [
        {
          "indexed": true,
          "internalType": "address",
          "name": "previousOwner",
          "type": "address"
        },
        {
          "indexed": true,
          "internalType": "address",
          "name": "newOwner",
          "type": "address"
        }
      ],
      "name": "OwnershipTransferred",
      "type": "event"
    },
    {
      "anonymous": false,
      "inputs": [
        {
          "indexed": true,
          "internalType": "address",
          "name": "from",
          "type": "address"
        },
        {
          "indexed": true,
          "internalType": "address",
          "name": "to",
          "type": "address"
        },
        {
          "indexed": true,
          "internalType": "uint256",
          "name": "tokenId",
          "type": "uint256"
        }
      ],
      "name": "Transfer",
      "type": "event"
    },
    {
      "inputs": [
        {
          "internalType": "address",
          "name": "to",
          "type": "address"
        },
        {
          "internalType": "uint256",
          "name": "tokenId",
          "type": "uint256"
        }
      ],
      "name": "approve",
      "outputs": [],
      "stateMutability": "nonpayable",
      "type": "function"
    },
    {
      "inputs": [
        {
          "internalType": "address",
          "name": "owner",
          "type": "address"
        }
      ],
      "name": "balanceOf",
      "outputs": [
        {
          "internalType": "uint256",
          "name": "",
          "type": "uint256"
        }
      ],
      "stateMutability": "view",
      "type": "function"
    },
    {
      "inputs": [
        {
          "internalType": "uint256",
          "name": "tokenId",
          "type": "uint256"
        }
      ],
      "name": "getApproved",
      "outputs": [
        {
          "internalType": "address",
          "name": "",
          "type": "address"
        }
      ],
      "stateMutability": "view",
      "type": "function"
    },
    {
      "inputs": [
        {
          "internalType": "address",
          "name": "owner",
          "type": "address"
        },
        {
          "internalType": "address",
          "name": "operator",
          "type": "address"
        }
      ],
      "name": "isApprovedForAll",
      "outputs": [
        {
          "internalType": "bool",
          "name": "",
          "type": "bool"
        }
      ],
      "stateMutability": "view",
      "type": "function"
    },
    {
      "inputs": [],
      "name": "name",
      "outputs": [
        {
          "internalType": "string",
          "name": "",
          "type": "string"
        }
      ],
      "stateMutability": "view",
      "type": "function"
    },
    {
      "inputs": [],
      "name": "owner",
      "outputs": [
        {
          "internalType": "address",
          "name": "",
          "type": "address"
        }
      ],
      "stateMutability": "view",
      "type": "function"
    },
    {
      "inputs": [
        {
          "internalType": "uint256",
          "name": "tokenId",
          "type": "uint256"
        }
      ],
      "name": "ownerOf",
      "outputs": [
        {
          "internalType": "address",
          "name": "",
          "type": "address"
        }
      ],
      "stateMutability": "view",
      "type": "function"
    },
    {
      "inputs": [],
      "name": "renounceOwnership",
      "outputs": [],
      "stateMutability": "nonpayable",
      "type": "function"
    },
    {
      "inputs": [
        {
          "internalType": "address",
          "name": "from",
          "type": "address"
        },
        {
          "internalType": "address",
          "name": "to",
          "type": "address"
        },
        {
          "internalType": "uint256",
          "name": "tokenId",
          "type": "uint256"
        }
      ],
      "name": "safeTransferFrom",
      "outputs": [],
      "stateMutability": "nonpayable",
      "type": "function"
    },
    {
      "inputs": [
        {
          "internalType": "address",
          "name": "from",
          "type": "address"
        },
        {
          "internalType": "address",
          "name": "to",
          "type": "address"
        },
        {
          "internalType": "uint256",
          "name": "tokenId",
          "type": "uint256"
        },
        {
          "internalType": "bytes",
          "name": "_data",
          "type": "bytes"
        }
      ],
      "name": "safeTransferFrom",
      "outputs": [],
      "stateMutability": "nonpayable",
      "type": "function"
    },
    {
      "inputs": [
        {
          "internalType": "address",
          "name": "operator",
          "type": "address"
        },
        {
          "internalType": "bool",
          "name": "approved",
          "type": "bool"
        }
      ],
      "name": "setApprovalForAll",
      "outputs": [],
      "stateMutability": "nonpayable",
      "type": "function"
    },
    {
      "inputs": [
        {
          "internalType": "bytes4",
          "name": "interfaceId",
          "type": "bytes4"
        }
      ],
      "name": "supportsInterface",
      "outputs": [
        {
          "internalType": "bool",
          "name": "",
          "type": "bool"
        }
      ],
      "stateMutability": "view",
      "type": "function"
    },
    {
      "inputs": [],
      "name": "symbol",
      "outputs": [
        {
          "internalType": "string",
          "name": "",
          "type": "string"
        }
      ],
      "stateMutability": "view",
      "type": "function"
    },
    {
      "inputs": [
        {
          "internalType": "uint256",
          "name": "index",
          "type": "uint256"
        }
      ],
      "name": "tokenByIndex",
      "outputs": [
        {
          "internalType": "uint256",
          "name": "",
          "type": "uint256"
        }
      ],
      "stateMutability": "view",
      "type": "function"
    },
    {
      "inputs": [
        {
          "internalType": "address",
          "name": "owner",
          "type": "address"
        },
        {
          "internalType": "uint256",
          "name": "index",
          "type": "uint256"
        }
      ],
      "name": "tokenOfOwnerByIndex",
      "outputs": [
        {
          "internalType": "uint256",
          "name": "",
          "type": "uint256"
        }
      ],
      "stateMutability": "view",
      "type": "function"
    },
    {
      "inputs": [
        {
          "internalType": "uint256",
          "name": "tokenId",
          "type": "uint256"
        }
      ],
      "name": "tokenURI",
      "outputs": [
        {
          "internalType": "string",
          "name": "",
          "type": "string"
        }
      ],
      "stateMutability": "view",
      "type": "function"
    },
    {
      "inputs": [],
      "name": "totalSupply",
      "outputs": [
        {
          "internalType": "uint256",
          "name": "",
          "type": "uint256"
        }
      ],
      "stateMutability": "view",
      "type": "function"
    },
    {
      "inputs": [
        {
          "internalType": "address",
          "name": "from",
          "type": "address"
        },
        {
          "internalType": "address",
          "name": "to",
          "type": "address"
        },
        {
          "internalType": "uint256",
          "name": "tokenId",
          "type": "uint256"
        }
      ],
      "name": "transferFrom",
      "outputs": [],
      "stateMutability": "nonpayable",
      "type": "function"
    },
    {
      "inputs": [
        {
          "internalType": "address",
          "name": "newOwner",
          "type": "address"
        }
      ],
      "name": "transferOwnership",
      "outputs": [],
      "stateMutability": "nonpayable",
      "type": "function"
    },
    {
      "inputs": [
        {
          "internalType": "uint256",
          "name": "tokenId",
          "type": "uint256"
        }
      ],
      "name": "testClaim",
      "outputs": [],
      "stateMutability": "payable",
      "type": "function"
    },
    {
      "inputs": [],
      "name": "bankCheck",
      "outputs": [],
      "stateMutability": "payable",
      "type": "function"
    }
  ],
  "bytecode": "0x60806040526000600c553480156200001657600080fd5b5060405162003a1738038062003a1783398181016040528101906200003c91906200029e565b818181600090805190602001906200005692919062000170565b5080600190805190602001906200006f92919062000170565b5050506001600a819055506200009a6200008e620000a260201b60201c565b620000aa60201b60201c565b5050620004a7565b600033905090565b6000600b60009054906101000a900473ffffffffffffffffffffffffffffffffffffffff16905081600b60006101000a81548173ffffffffffffffffffffffffffffffffffffffff021916908373ffffffffffffffffffffffffffffffffffffffff1602179055508173ffffffffffffffffffffffffffffffffffffffff168173ffffffffffffffffffffffffffffffffffffffff167f8be0079c531659141344cd1fd0a4f28419497f9722a3daafe3b4186f6b6457e060405160405180910390a35050565b8280546200017e90620003b8565b90600052602060002090601f016020900481019282620001a25760008555620001ee565b82601f10620001bd57805160ff1916838001178555620001ee565b82800160010185558215620001ee579182015b82811115620001ed578251825591602001919060010190620001d0565b5b509050620001fd919062000201565b5090565b5b808211156200021c57600081600090555060010162000202565b5090565b60006200023762000231846200034c565b62000323565b90508281526020810184848401111562000256576200025562000487565b5b6200026384828562000382565b509392505050565b600082601f83011262000283576200028262000482565b5b81516200029584826020860162000220565b91505092915050565b60008060408385031215620002b857620002b762000491565b5b600083015167ffffffffffffffff811115620002d957620002d86200048c565b5b620002e7858286016200026b565b925050602083015167ffffffffffffffff8111156200030b576200030a6200048c565b5b62000319858286016200026b565b9150509250929050565b60006200032f62000342565b90506200033d8282620003ee565b919050565b6000604051905090565b600067ffffffffffffffff8211156200036a576200036962000453565b5b620003758262000496565b9050602081019050919050565b60005b83811015620003a257808201518184015260208101905062000385565b83811115620003b2576000848401525b50505050565b60006002820490506001821680620003d157607f821691505b60208210811415620003e857620003e762000424565b5b50919050565b620003f98262000496565b810181811067ffffffffffffffff821117156200041b576200041a62000453565b5b80604052505050565b7f4e487b7100000000000000000000000000000000000000000000000000000000600052602260045260246000fd5b7f4e487b7100000000000000000000000000000000000000000000000000000000600052604160045260246000fd5b600080fd5b600080fd5b600080fd5b600080fd5b6000601f19601f8301169050919050565b61356080620004b76000396000f3fe60806040526004361061012a5760003560e01c806370a08231116100ab578063a22cb4651161006f578063a22cb465146103f7578063b88d4fde14610420578063c87b56dd14610449578063e985e9c514610486578063f27fffb6146104c3578063f2fde38b146104cd5761012a565b806370a0823114610331578063715018a61461036e5780638da5cb5b1461038557806395d89b41146103b057806395fe0d86146103db5761012a565b806323b872dd116100f257806323b872dd146102285780632f745c591461025157806342842e0e1461028e5780634f6ccce7146102b75780636352211e146102f45761012a565b806301ffc9a71461012f57806306fdde031461016c578063081812fc14610197578063095ea7b3146101d457806318160ddd146101fd575b600080fd5b34801561013b57600080fd5b5061015660048036038101906101519190612456565b6104f6565b60405161016391906128d1565b60405180910390f35b34801561017857600080fd5b50610181610570565b60405161018e91906128ec565b60405180910390f35b3480156101a357600080fd5b506101be60048036038101906101b991906124b0565b610602565b6040516101cb919061286a565b60405180910390f35b3480156101e057600080fd5b506101fb60048036038101906101f69190612416565b610687565b005b34801561020957600080fd5b5061021261079f565b60405161021f9190612b6e565b60405180910390f35b34801561023457600080fd5b5061024f600480360381019061024a9190612300565b6107ac565b005b34801561025d57600080fd5b5061027860048036038101906102739190612416565b61080c565b6040516102859190612b6e565b60405180910390f35b34801561029a57600080fd5b506102b560048036038101906102b09190612300565b6108b1565b005b3480156102c357600080fd5b506102de60048036038101906102d991906124b0565b6108d1565b6040516102eb9190612b6e565b60405180910390f35b34801561030057600080fd5b5061031b600480360381019061031691906124b0565b610942565b604051610328919061286a565b60405180910390f35b34801561033d57600080fd5b5061035860048036038101906103539190612293565b6109f4565b6040516103659190612b6e565b60405180910390f35b34801561037a57600080fd5b50610383610aac565b005b34801561039157600080fd5b5061039a610b34565b6040516103a7919061286a565b60405180910390f35b3480156103bc57600080fd5b506103c5610b5e565b6040516103d291906128ec565b60405180910390f35b6103f560048036038101906103f091906124b0565b610bf0565b005b34801561040357600080fd5b5061041e600480360381019061041991906123d6565b610c80565b005b34801561042c57600080fd5b5061044760048036038101906104429190612353565b610e01565b005b34801561045557600080fd5b50610470600480360381019061046b91906124b0565b610e63565b60405161047d91906128ec565b60405180910390f35b34801561049257600080fd5b506104ad60048036038101906104a891906122c0565b610f0a565b6040516104ba91906128d1565b60405180910390f35b6104cb610f9e565b005b3480156104d957600080fd5b506104f460048036038101906104ef9190612293565b611065565b005b60007f780e9d63000000000000000000000000000000000000000000000000000000007bffffffffffffffffffffffffffffffffffffffffffffffffffffffff1916827bffffffffffffffffffffffffffffffffffffffffffffffffffffffff1916148061056957506105688261115d565b5b9050919050565b60606000805461057f90612d93565b80601f01602080910402602001604051908101604052809291908181526020018280546105ab90612d93565b80156105f85780601f106105cd576101008083540402835291602001916105f8565b820191906000526020600020905b8154815290600101906020018083116105db57829003601f168201915b5050505050905090565b600061060d8261123f565b61064c576040517f08c379a000000000000000000000000000000000000000000000000000000000815260040161064390612a6e565b60405180910390fd5b6004600083815260200190815260200160002060009054906101000a900473ffffffffffffffffffffffffffffffffffffffff169050919050565b600061069282610942565b90508073ffffffffffffffffffffffffffffffffffffffff168373ffffffffffffffffffffffffffffffffffffffff161415610703576040517f08c379a00000000000000000000000000000000000000000000000000000000081526004016106fa90612aee565b60405180910390fd5b8073ffffffffffffffffffffffffffffffffffffffff166107226112ab565b73ffffffffffffffffffffffffffffffffffffffff16148061075157506107508161074b6112ab565b610f0a565b5b610790576040517f08c379a0000000000000000000000000000000000000000000000000000000008152600401610787906129ee565b60405180910390fd5b61079a83836112b3565b505050565b6000600880549050905090565b6107bd6107b76112ab565b8261136c565b6107fc576040517f08c379a00000000000000000000000000000000000000000000000000000000081526004016107f390612b0e565b60405180910390fd5b61080783838361144a565b505050565b6000610817836109f4565b8210610858576040517f08c379a000000000000000000000000000000000000000000000000000000000815260040161084f9061290e565b60405180910390fd5b600660008473ffffffffffffffffffffffffffffffffffffffff1673ffffffffffffffffffffffffffffffffffffffff168152602001908152602001600020600083815260200190815260200160002054905092915050565b6108cc83838360405180602001604052806000815250610e01565b505050565b60006108db61079f565b821061091c576040517f08c379a000000000000000000000000000000000000000000000000000000000815260040161091390612b2e565b60405180910390fd5b600882815481106109305761092f612f2c565b5b90600052602060002001549050919050565b6000806002600084815260200190815260200160002060009054906101000a900473ffffffffffffffffffffffffffffffffffffffff169050600073ffffffffffffffffffffffffffffffffffffffff168173ffffffffffffffffffffffffffffffffffffffff1614156109eb576040517f08c379a00000000000000000000000000000000000000000000000000000000081526004016109e290612a2e565b60405180910390fd5b80915050919050565b60008073ffffffffffffffffffffffffffffffffffffffff168273ffffffffffffffffffffffffffffffffffffffff161415610a65576040517f08c379a0000000000000000000000000000000000000000000000000000000008152600401610a5c90612a0e565b60405180910390fd5b600360008373ffffffffffffffffffffffffffffffffffffffff1673ffffffffffffffffffffffffffffffffffffffff168152602001908152602001600020549050919050565b610ab46112ab565b73ffffffffffffffffffffffffffffffffffffffff16610ad2610b34565b73ffffffffffffffffffffffffffffffffffffffff1614610b28576040517f08c379a0000000000000000000000000000000000000000000000000000000008152600401610b1f90612a8e565b60405180910390fd5b610b3260006116a6565b565b6000600b60009054906101000a900473ffffffffffffffffffffffffffffffffffffffff16905090565b606060018054610b6d90612d93565b80601f0160208091040260200160405190810160405280929190818152602001828054610b9990612d93565b8015610be65780601f10610bbb57610100808354040283529160200191610be6565b820191906000526020600020905b815481529060010190602001808311610bc957829003601f168201915b5050505050905090565b6002600a541415610c36576040517f08c379a0000000000000000000000000000000000000000000000000000000008152600401610c2d90612b4e565b60405180910390fd5b6002600a8190555060013411610c4b57600080fd5b34600c6000828254610c5d9190612c22565b92505081905550610c75610c6f6112ab565b8261176c565b6001600a8190555050565b610c886112ab565b73ffffffffffffffffffffffffffffffffffffffff168273ffffffffffffffffffffffffffffffffffffffff161415610cf6576040517f08c379a0000000000000000000000000000000000000000000000000000000008152600401610ced906129ae565b60405180910390fd5b8060056000610d036112ab565b73ffffffffffffffffffffffffffffffffffffffff1673ffffffffffffffffffffffffffffffffffffffff16815260200190815260200160002060008473ffffffffffffffffffffffffffffffffffffffff1673ffffffffffffffffffffffffffffffffffffffff16815260200190815260200160002060006101000a81548160ff0219169083151502179055508173ffffffffffffffffffffffffffffffffffffffff16610db06112ab565b73ffffffffffffffffffffffffffffffffffffffff167f17307eab39ab6107e8899845ad3d59bd9653f200f220920489ca2b5937696c3183604051610df591906128d1565b60405180910390a35050565b610e12610e0c6112ab565b8361136c565b610e51576040517f08c379a0000000000000000000000000000000000000000000000000000000008152600401610e4890612b0e565b60405180910390fd5b610e5d8484848461178a565b50505050565b6060610e6e8261123f565b610ead576040517f08c379a0000000000000000000000000000000000000000000000000000000008152600401610ea490612ace565b60405180910390fd5b6000610eb76117e6565b90506000815111610ed75760405180602001604052806000815250610f02565b80610ee1846117fd565b604051602001610ef2929190612846565b6040516020818303038152906040525b915050919050565b6000600560008473ffffffffffffffffffffffffffffffffffffffff1673ffffffffffffffffffffffffffffffffffffffff16815260200190815260200160002060008373ffffffffffffffffffffffffffffffffffffffff1673ffffffffffffffffffffffffffffffffffffffff16815260200190815260200160002060009054906101000a900460ff16905092915050565b610fa66112ab565b73ffffffffffffffffffffffffffffffffffffffff16610fc4610b34565b73ffffffffffffffffffffffffffffffffffffffff161461101a576040517f08c379a000000000000000000000000000000000000000000000000000000000815260040161101190612a8e565b60405180910390fd5b3373ffffffffffffffffffffffffffffffffffffffff166108fc600c549081150290604051600060405180830381858888f19350505050158015611062573d6000803e3d6000fd5b50565b61106d6112ab565b73ffffffffffffffffffffffffffffffffffffffff1661108b610b34565b73ffffffffffffffffffffffffffffffffffffffff16146110e1576040517f08c379a00000000000000000000000000000000000000000000000000000000081526004016110d890612a8e565b60405180910390fd5b600073ffffffffffffffffffffffffffffffffffffffff168173ffffffffffffffffffffffffffffffffffffffff161415611151576040517f08c379a00000000000000000000000000000000000000000000000000000000081526004016111489061294e565b60405180910390fd5b61115a816116a6565b50565b60007f80ac58cd000000000000000000000000000000000000000000000000000000007bffffffffffffffffffffffffffffffffffffffffffffffffffffffff1916827bffffffffffffffffffffffffffffffffffffffffffffffffffffffff1916148061122857507f5b5e139f000000000000000000000000000000000000000000000000000000007bffffffffffffffffffffffffffffffffffffffffffffffffffffffff1916827bffffffffffffffffffffffffffffffffffffffffffffffffffffffff1916145b8061123857506112378261195e565b5b9050919050565b60008073ffffffffffffffffffffffffffffffffffffffff166002600084815260200190815260200160002060009054906101000a900473ffffffffffffffffffffffffffffffffffffffff1673ffffffffffffffffffffffffffffffffffffffff1614159050919050565b600033905090565b816004600083815260200190815260200160002060006101000a81548173ffffffffffffffffffffffffffffffffffffffff021916908373ffffffffffffffffffffffffffffffffffffffff160217905550808273ffffffffffffffffffffffffffffffffffffffff1661132683610942565b73ffffffffffffffffffffffffffffffffffffffff167f8c5be1e5ebec7d5bd14f71427d1e84f3dd0314c0f7b2291e5b200ac8c7c3b92560405160405180910390a45050565b60006113778261123f565b6113b6576040517f08c379a00000000000000000000000000000000000000000000000000000000081526004016113ad906129ce565b60405180910390fd5b60006113c183610942565b90508073ffffffffffffffffffffffffffffffffffffffff168473ffffffffffffffffffffffffffffffffffffffff16148061143057508373ffffffffffffffffffffffffffffffffffffffff1661141884610602565b73ffffffffffffffffffffffffffffffffffffffff16145b8061144157506114408185610f0a565b5b91505092915050565b8273ffffffffffffffffffffffffffffffffffffffff1661146a82610942565b73ffffffffffffffffffffffffffffffffffffffff16146114c0576040517f08c379a00000000000000000000000000000000000000000000000000000000081526004016114b790612aae565b60405180910390fd5b600073ffffffffffffffffffffffffffffffffffffffff168273ffffffffffffffffffffffffffffffffffffffff161415611530576040517f08c379a00000000000000000000000000000000000000000000000000000000081526004016115279061298e565b60405180910390fd5b61153b8383836119c8565b6115466000826112b3565b6001600360008573ffffffffffffffffffffffffffffffffffffffff1673ffffffffffffffffffffffffffffffffffffffff16815260200190815260200160002060008282546115969190612ca9565b925050819055506001600360008473ffffffffffffffffffffffffffffffffffffffff1673ffffffffffffffffffffffffffffffffffffffff16815260200190815260200160002060008282546115ed9190612c22565b92505081905550816002600083815260200190815260200160002060006101000a81548173ffffffffffffffffffffffffffffffffffffffff021916908373ffffffffffffffffffffffffffffffffffffffff160217905550808273ffffffffffffffffffffffffffffffffffffffff168473ffffffffffffffffffffffffffffffffffffffff167fddf252ad1be2c89b69c2b068fc378daa952ba7f163c4a11628f55a4df523b3ef60405160405180910390a4505050565b6000600b60009054906101000a900473ffffffffffffffffffffffffffffffffffffffff16905081600b60006101000a81548173ffffffffffffffffffffffffffffffffffffffff021916908373ffffffffffffffffffffffffffffffffffffffff1602179055508173ffffffffffffffffffffffffffffffffffffffff168173ffffffffffffffffffffffffffffffffffffffff167f8be0079c531659141344cd1fd0a4f28419497f9722a3daafe3b4186f6b6457e060405160405180910390a35050565b611786828260405180602001604052806000815250611adc565b5050565b61179584848461144a565b6117a184848484611b37565b6117e0576040517f08c379a00000000000000000000000000000000000000000000000000000000081526004016117d79061292e565b60405180910390fd5b50505050565b606060405180602001604052806000815250905090565b60606000821415611845576040518060400160405280600181526020017f30000000000000000000000000000000000000000000000000000000000000008152509050611959565b600082905060005b6000821461187757808061186090612df6565b915050600a826118709190612c78565b915061184d565b60008167ffffffffffffffff81111561189357611892612f5b565b5b6040519080825280601f01601f1916602001820160405280156118c55781602001600182028036833780820191505090505b5090505b60008514611952576001826118de9190612ca9565b9150600a856118ed9190612e3f565b60306118f99190612c22565b60f81b81838151811061190f5761190e612f2c565b5b60200101907effffffffffffffffffffffffffffffffffffffffffffffffffffffffffffff1916908160001a905350600a8561194b9190612c78565b94506118c9565b8093505050505b919050565b60007f01ffc9a7000000000000000000000000000000000000000000000000000000007bffffffffffffffffffffffffffffffffffffffffffffffffffffffff1916827bffffffffffffffffffffffffffffffffffffffffffffffffffffffff1916149050919050565b6119d3838383611cce565b600073ffffffffffffffffffffffffffffffffffffffff168373ffffffffffffffffffffffffffffffffffffffff161415611a1657611a1181611cd3565b611a55565b8173ffffffffffffffffffffffffffffffffffffffff168373ffffffffffffffffffffffffffffffffffffffff1614611a5457611a538382611d1c565b5b5b600073ffffffffffffffffffffffffffffffffffffffff168273ffffffffffffffffffffffffffffffffffffffff161415611a9857611a9381611e89565b611ad7565b8273ffffffffffffffffffffffffffffffffffffffff168273ffffffffffffffffffffffffffffffffffffffff1614611ad657611ad58282611f5a565b5b5b505050565b611ae68383611fd9565b611af36000848484611b37565b611b32576040517f08c379a0000000000000000000000000000000000000000000000000000000008152600401611b299061292e565b60405180910390fd5b505050565b6000611b588473ffffffffffffffffffffffffffffffffffffffff166121a7565b15611cc1578373ffffffffffffffffffffffffffffffffffffffff1663150b7a02611b816112ab565b8786866040518563ffffffff1660e01b8152600401611ba39493929190612885565b602060405180830381600087803b158015611bbd57600080fd5b505af1925050508015611bee57506040513d601f19601f82011682018060405250810190611beb9190612483565b60015b611c71573d8060008114611c1e576040519150601f19603f3d011682016040523d82523d6000602084013e611c23565b606091505b50600081511415611c69576040517f08c379a0000000000000000000000000000000000000000000000000000000008152600401611c609061292e565b60405180910390fd5b805181602001fd5b63150b7a0260e01b7bffffffffffffffffffffffffffffffffffffffffffffffffffffffff1916817bffffffffffffffffffffffffffffffffffffffffffffffffffffffff191614915050611cc6565b600190505b949350505050565b505050565b6008805490506009600083815260200190815260200160002081905550600881908060018154018082558091505060019003906000526020600020016000909190919091505550565b60006001611d29846109f4565b611d339190612ca9565b9050600060076000848152602001908152602001600020549050818114611e18576000600660008673ffffffffffffffffffffffffffffffffffffffff1673ffffffffffffffffffffffffffffffffffffffff168152602001908152602001600020600084815260200190815260200160002054905080600660008773ffffffffffffffffffffffffffffffffffffffff1673ffffffffffffffffffffffffffffffffffffffff168152602001908152602001600020600084815260200190815260200160002081905550816007600083815260200190815260200160002081905550505b6007600084815260200190815260200160002060009055600660008573ffffffffffffffffffffffffffffffffffffffff1673ffffffffffffffffffffffffffffffffffffffff16815260200190815260200160002060008381526020019081526020016000206000905550505050565b60006001600880549050611e9d9190612ca9565b9050600060096000848152602001908152602001600020549050600060088381548110611ecd57611ecc612f2c565b5b906000526020600020015490508060088381548110611eef57611eee612f2c565b5b906000526020600020018190555081600960008381526020019081526020016000208190555060096000858152602001908152602001600020600090556008805480611f3e57611f3d612efd565b5b6001900381819060005260206000200160009055905550505050565b6000611f65836109f4565b905081600660008573ffffffffffffffffffffffffffffffffffffffff1673ffffffffffffffffffffffffffffffffffffffff168152602001908152602001600020600083815260200190815260200160002081905550806007600084815260200190815260200160002081905550505050565b600073ffffffffffffffffffffffffffffffffffffffff168273ffffffffffffffffffffffffffffffffffffffff161415612049576040517f08c379a000000000000000000000000000000000000000000000000000000000815260040161204090612a4e565b60405180910390fd5b6120528161123f565b15612092576040517f08c379a00000000000000000000000000000000000000000000000000000000081526004016120899061296e565b60405180910390fd5b61209e600083836119c8565b6001600360008473ffffffffffffffffffffffffffffffffffffffff1673ffffffffffffffffffffffffffffffffffffffff16815260200190815260200160002060008282546120ee9190612c22565b92505081905550816002600083815260200190815260200160002060006101000a81548173ffffffffffffffffffffffffffffffffffffffff021916908373ffffffffffffffffffffffffffffffffffffffff160217905550808273ffffffffffffffffffffffffffffffffffffffff16600073ffffffffffffffffffffffffffffffffffffffff167fddf252ad1be2c89b69c2b068fc378daa952ba7f163c4a11628f55a4df523b3ef60405160405180910390a45050565b600080823b905060008111915050919050565b60006121cd6121c884612bae565b612b89565b9050828152602081018484840111156121e9576121e8612f8f565b5b6121f4848285612d51565b509392505050565b60008135905061220b816134ce565b92915050565b600081359050612220816134e5565b92915050565b600081359050612235816134fc565b92915050565b60008151905061224a816134fc565b92915050565b600082601f83011261226557612264612f8a565b5b81356122758482602086016121ba565b91505092915050565b60008135905061228d81613513565b92915050565b6000602082840312156122a9576122a8612f99565b5b60006122b7848285016121fc565b91505092915050565b600080604083850312156122d7576122d6612f99565b5b60006122e5858286016121fc565b92505060206122f6858286016121fc565b9150509250929050565b60008060006060848603121561231957612318612f99565b5b6000612327868287016121fc565b9350506020612338868287016121fc565b92505060406123498682870161227e565b9150509250925092565b6000806000806080858703121561236d5761236c612f99565b5b600061237b878288016121fc565b945050602061238c878288016121fc565b935050604061239d8782880161227e565b925050606085013567ffffffffffffffff8111156123be576123bd612f94565b5b6123ca87828801612250565b91505092959194509250565b600080604083850312156123ed576123ec612f99565b5b60006123fb858286016121fc565b925050602061240c85828601612211565b9150509250929050565b6000806040838503121561242d5761242c612f99565b5b600061243b858286016121fc565b925050602061244c8582860161227e565b9150509250929050565b60006020828403121561246c5761246b612f99565b5b600061247a84828501612226565b91505092915050565b60006020828403121561249957612498612f99565b5b60006124a78482850161223b565b91505092915050565b6000602082840312156124c6576124c5612f99565b5b60006124d48482850161227e565b91505092915050565b6124e681612cdd565b82525050565b6124f581612cef565b82525050565b600061250682612bdf565b6125108185612bf5565b9350612520818560208601612d60565b61252981612f9e565b840191505092915050565b600061253f82612bea565b6125498185612c06565b9350612559818560208601612d60565b61256281612f9e565b840191505092915050565b600061257882612bea565b6125828185612c17565b9350612592818560208601612d60565b80840191505092915050565b60006125ab602b83612c06565b91506125b682612faf565b604082019050919050565b60006125ce603283612c06565b91506125d982612ffe565b604082019050919050565b60006125f1602683612c06565b91506125fc8261304d565b604082019050919050565b6000612614601c83612c06565b915061261f8261309c565b602082019050919050565b6000612637602483612c06565b9150612642826130c5565b604082019050919050565b600061265a601983612c06565b915061266582613114565b602082019050919050565b600061267d602c83612c06565b91506126888261313d565b604082019050919050565b60006126a0603883612c06565b91506126ab8261318c565b604082019050919050565b60006126c3602a83612c06565b91506126ce826131db565b604082019050919050565b60006126e6602983612c06565b91506126f18261322a565b604082019050919050565b6000612709602083612c06565b915061271482613279565b602082019050919050565b600061272c602c83612c06565b9150612737826132a2565b604082019050919050565b600061274f602083612c06565b915061275a826132f1565b602082019050919050565b6000612772602983612c06565b915061277d8261331a565b604082019050919050565b6000612795602f83612c06565b91506127a082613369565b604082019050919050565b60006127b8602183612c06565b91506127c3826133b8565b604082019050919050565b60006127db603183612c06565b91506127e682613407565b604082019050919050565b60006127fe602c83612c06565b915061280982613456565b604082019050919050565b6000612821601f83612c06565b915061282c826134a5565b602082019050919050565b61284081612d47565b82525050565b6000612852828561256d565b915061285e828461256d565b91508190509392505050565b600060208201905061287f60008301846124dd565b92915050565b600060808201905061289a60008301876124dd565b6128a760208301866124dd565b6128b46040830185612837565b81810360608301526128c681846124fb565b905095945050505050565b60006020820190506128e660008301846124ec565b92915050565b600060208201905081810360008301526129068184612534565b905092915050565b600060208201905081810360008301526129278161259e565b9050919050565b60006020820190508181036000830152612947816125c1565b9050919050565b60006020820190508181036000830152612967816125e4565b9050919050565b6000602082019050818103600083015261298781612607565b9050919050565b600060208201905081810360008301526129a78161262a565b9050919050565b600060208201905081810360008301526129c78161264d565b9050919050565b600060208201905081810360008301526129e781612670565b9050919050565b60006020820190508181036000830152612a0781612693565b9050919050565b60006020820190508181036000830152612a27816126b6565b9050919050565b60006020820190508181036000830152612a47816126d9565b9050919050565b60006020820190508181036000830152612a67816126fc565b9050919050565b60006020820190508181036000830152612a878161271f565b9050919050565b60006020820190508181036000830152612aa781612742565b9050919050565b60006020820190508181036000830152612ac781612765565b9050919050565b60006020820190508181036000830152612ae781612788565b9050919050565b60006020820190508181036000830152612b07816127ab565b9050919050565b60006020820190508181036000830152612b27816127ce565b9050919050565b60006020820190508181036000830152612b47816127f1565b9050919050565b60006020820190508181036000830152612b6781612814565b9050919050565b6000602082019050612b836000830184612837565b92915050565b6000612b93612ba4565b9050612b9f8282612dc5565b919050565b6000604051905090565b600067ffffffffffffffff821115612bc957612bc8612f5b565b5b612bd282612f9e565b9050602081019050919050565b600081519050919050565b600081519050919050565b600082825260208201905092915050565b600082825260208201905092915050565b600081905092915050565b6000612c2d82612d47565b9150612c3883612d47565b9250827fffffffffffffffffffffffffffffffffffffffffffffffffffffffffffffffff03821115612c6d57612c6c612e70565b5b828201905092915050565b6000612c8382612d47565b9150612c8e83612d47565b925082612c9e57612c9d612e9f565b5b828204905092915050565b6000612cb482612d47565b9150612cbf83612d47565b925082821015612cd257612cd1612e70565b5b828203905092915050565b6000612ce882612d27565b9050919050565b60008115159050919050565b60007fffffffff0000000000000000000000000000000000000000000000000000000082169050919050565b600073ffffffffffffffffffffffffffffffffffffffff82169050919050565b6000819050919050565b82818337600083830152505050565b60005b83811015612d7e578082015181840152602081019050612d63565b83811115612d8d576000848401525b50505050565b60006002820490506001821680612dab57607f821691505b60208210811415612dbf57612dbe612ece565b5b50919050565b612dce82612f9e565b810181811067ffffffffffffffff82111715612ded57612dec612f5b565b5b80604052505050565b6000612e0182612d47565b91507fffffffffffffffffffffffffffffffffffffffffffffffffffffffffffffffff821415612e3457612e33612e70565b5b600182019050919050565b6000612e4a82612d47565b9150612e5583612d47565b925082612e6557612e64612e9f565b5b828206905092915050565b7f4e487b7100000000000000000000000000000000000000000000000000000000600052601160045260246000fd5b7f4e487b7100000000000000000000000000000000000000000000000000000000600052601260045260246000fd5b7f4e487b7100000000000000000000000000000000000000000000000000000000600052602260045260246000fd5b7f4e487b7100000000000000000000000000000000000000000000000000000000600052603160045260246000fd5b7f4e487b7100000000000000000000000000000000000000000000000000000000600052603260045260246000fd5b7f4e487b7100000000000000000000000000000000000000000000000000000000600052604160045260246000fd5b600080fd5b600080fd5b600080fd5b600080fd5b6000601f19601f8301169050919050565b7f455243373231456e756d657261626c653a206f776e657220696e646578206f7560008201527f74206f6620626f756e6473000000000000000000000000000000000000000000602082015250565b7f4552433732313a207472616e7366657220746f206e6f6e20455243373231526560008201527f63656976657220696d706c656d656e7465720000000000000000000000000000602082015250565b7f4f776e61626c653a206e6577206f776e657220697320746865207a65726f206160008201527f6464726573730000000000000000000000000000000000000000000000000000602082015250565b7f4552433732313a20746f6b656e20616c7265616479206d696e74656400000000600082015250565b7f4552433732313a207472616e7366657220746f20746865207a65726f2061646460008201527f7265737300000000000000000000000000000000000000000000000000000000602082015250565b7f4552433732313a20617070726f766520746f2063616c6c657200000000000000600082015250565b7f4552433732313a206f70657261746f7220717565727920666f72206e6f6e657860008201527f697374656e7420746f6b656e0000000000000000000000000000000000000000602082015250565b7f4552433732313a20617070726f76652063616c6c6572206973206e6f74206f7760008201527f6e6572206e6f7220617070726f76656420666f7220616c6c0000000000000000602082015250565b7f4552433732313a2062616c616e636520717565727920666f7220746865207a6560008201527f726f206164647265737300000000000000000000000000000000000000000000602082015250565b7f4552433732313a206f776e657220717565727920666f72206e6f6e657869737460008201527f656e7420746f6b656e0000000000000000000000000000000000000000000000602082015250565b7f4552433732313a206d696e7420746f20746865207a65726f2061646472657373600082015250565b7f4552433732313a20617070726f76656420717565727920666f72206e6f6e657860008201527f697374656e7420746f6b656e0000000000000000000000000000000000000000602082015250565b7f4f776e61626c653a2063616c6c6572206973206e6f7420746865206f776e6572600082015250565b7f4552433732313a207472616e73666572206f6620746f6b656e2074686174206960008201527f73206e6f74206f776e0000000000000000000000000000000000000000000000602082015250565b7f4552433732314d657461646174613a2055524920717565727920666f72206e6f60008201527f6e6578697374656e7420746f6b656e0000000000000000000000000000000000602082015250565b7f4552433732313a20617070726f76616c20746f2063757272656e74206f776e6560008201527f7200000000000000000000000000000000000000000000000000000000000000602082015250565b7f4552433732313a207472616e736665722063616c6c6572206973206e6f74206f60008201527f776e6572206e6f7220617070726f766564000000000000000000000000000000602082015250565b7f455243373231456e756d657261626c653a20676c6f62616c20696e646578206f60008201527f7574206f6620626f756e64730000000000000000000000000000000000000000602082015250565b7f5265656e7472616e637947756172643a207265656e7472616e742063616c6c00600082015250565b6134d781612cdd565b81146134e257600080fd5b50565b6134ee81612cef565b81146134f957600080fd5b50565b61350581612cfb565b811461351057600080fd5b50565b61351c81612d47565b811461352757600080fd5b5056fea2646970667358221220ab8e375abfe0d5bb243b88e2af231535f87c122921de884ca4b09b5cc20bea8864736f6c63430008060033",
  "immutableReferences": {},
  "source": "// SPDX-License-Identifier: MIT\r\npragma solidity 0.8.6;\r\n\r\nimport \"@openzeppelin/contracts/token/ERC721/extensions/ERC721Enumerable.sol\";\r\nimport \"@openzeppelin/contracts/security/ReentrancyGuard.sol\";\r\nimport \"@openzeppelin/contracts/access/Ownable.sol\";\r\n\r\ncontract TestCoin is ERC721Enumerable, ReentrancyGuard, Ownable {\r\n\tuint bank = 0;\r\n\r\n\tconstructor (string memory _name, string memory _symbol) ERC721(_name, _symbol) Ownable()\r\n    {\r\n    }\r\n\t\r\n\t\r\n\tfunction testClaim(uint256 tokenId) public payable nonReentrant {\r\n\t\trequire(msg.value > 1);\r\n\t\t///deposit(msg.value);\r\n\t\tbank += msg.value;\r\n\t\t///owner.transfer(msg.value);\r\n\t\t_safeMint(_msgSender(), tokenId);\r\n\t}\r\n\t\r\n\tfunction bankCheck() public payable onlyOwner {\r\n\t\tpayable(msg.sender).transfer(bank);\r\n\t}\r\n}\r\n",
  "sourcePath": "D:\\HDD Documents\\GitHub\\testcoin\\contracts\\TestCoin.sol",
  "compiler": {
    "name": "solc",
    "version": "0.8.6+commit.11564f7e.Emscripten.clang"
  },
  "schemaVersion": "3.4.3",
  "updatedAt": "2021-10-18T23:22:57.011Z",
  "devdoc": {
    "kind": "dev",
    "methods": {
      "approve(address,uint256)": {
        "details": "See {IERC721-approve}."
      },
      "balanceOf(address)": {
        "details": "See {IERC721-balanceOf}."
      },
      "getApproved(uint256)": {
        "details": "See {IERC721-getApproved}."
      },
      "isApprovedForAll(address,address)": {
        "details": "See {IERC721-isApprovedForAll}."
      },
      "name()": {
        "details": "See {IERC721Metadata-name}."
      },
      "owner()": {
        "details": "Returns the address of the current owner."
      },
      "ownerOf(uint256)": {
        "details": "See {IERC721-ownerOf}."
      },
      "renounceOwnership()": {
        "details": "Leaves the contract without owner. It will not be possible to call `onlyOwner` functions anymore. Can only be called by the current owner. NOTE: Renouncing ownership will leave the contract without an owner, thereby removing any functionality that is only available to the owner."
      },
      "safeTransferFrom(address,address,uint256)": {
        "details": "See {IERC721-safeTransferFrom}."
      },
      "safeTransferFrom(address,address,uint256,bytes)": {
        "details": "See {IERC721-safeTransferFrom}."
      },
      "setApprovalForAll(address,bool)": {
        "details": "See {IERC721-setApprovalForAll}."
      },
      "supportsInterface(bytes4)": {
        "details": "See {IERC165-supportsInterface}."
      },
      "symbol()": {
        "details": "See {IERC721Metadata-symbol}."
      },
      "tokenByIndex(uint256)": {
        "details": "See {IERC721Enumerable-tokenByIndex}."
      },
      "tokenOfOwnerByIndex(address,uint256)": {
        "details": "See {IERC721Enumerable-tokenOfOwnerByIndex}."
      },
      "tokenURI(uint256)": {
        "details": "See {IERC721Metadata-tokenURI}."
      },
      "totalSupply()": {
        "details": "See {IERC721Enumerable-totalSupply}."
      },
      "transferFrom(address,address,uint256)": {
        "details": "See {IERC721-transferFrom}."
      },
      "transferOwnership(address)": {
        "details": "Transfers ownership of the contract to a new account (`newOwner`). Can only be called by the current owner."
      }
    },
    "version": 1
  },
  "userdoc": {
    "kind": "user",
    "methods": {},
    "version": 1
  }
}