{
  "contractName": "TestCoin",
  "abi": [
    {
      "inputs": [
        {
          "internalType": "string",
          "name": "_name",
          "type": "string"
        },
        {
          "internalType": "string",
          "name": "_symbol",
          "type": "string"
        }
      ],
      "stateMutability": "nonpayable",
      "type": "constructor"
    },
    {
      "anonymous": false,
      "inputs": [
        {
          "indexed": true,
          "internalType": "address",
          "name": "owner",
          "type": "address"
        },
        {
          "indexed": true,
          "internalType": "address",
          "name": "approved",
          "type": "address"
        },
        {
          "indexed": true,
          "internalType": "uint256",
          "name": "tokenId",
          "type": "uint256"
        }
      ],
      "name": "Approval",
      "type": "event"
    },
    {
      "anonymous": false,
      "inputs": [
        {
          "indexed": true,
          "internalType": "address",
          "name": "owner",
          "type": "address"
        },
        {
          "indexed": true,
          "internalType": "address",
          "name": "operator",
          "type": "address"
        },
        {
          "indexed": false,
          "internalType": "bool",
          "name": "approved",
          "type": "bool"
        }
      ],
      "name": "ApprovalForAll",
      "type": "event"
    },
    {
      "anonymous": false,
      "inputs": [
        {
          "indexed": true,
          "internalType": "address",
          "name": "previousOwner",
          "type": "address"
        },
        {
          "indexed": true,
          "internalType": "address",
          "name": "newOwner",
          "type": "address"
        }
      ],
      "name": "OwnershipTransferred",
      "type": "event"
    },
    {
      "anonymous": false,
      "inputs": [
        {
          "indexed": true,
          "internalType": "address",
          "name": "from",
          "type": "address"
        },
        {
          "indexed": true,
          "internalType": "address",
          "name": "to",
          "type": "address"
        },
        {
          "indexed": true,
          "internalType": "uint256",
          "name": "tokenId",
          "type": "uint256"
        }
      ],
      "name": "Transfer",
      "type": "event"
    },
    {
      "inputs": [
        {
          "internalType": "address",
          "name": "to",
          "type": "address"
        },
        {
          "internalType": "uint256",
          "name": "tokenId",
          "type": "uint256"
        }
      ],
      "name": "approve",
      "outputs": [],
      "stateMutability": "nonpayable",
      "type": "function"
    },
    {
      "inputs": [
        {
          "internalType": "address",
          "name": "owner",
          "type": "address"
        }
      ],
      "name": "balanceOf",
      "outputs": [
        {
          "internalType": "uint256",
          "name": "",
          "type": "uint256"
        }
      ],
      "stateMutability": "view",
      "type": "function"
    },
    {
      "inputs": [
        {
          "internalType": "uint256",
          "name": "tokenId",
          "type": "uint256"
        }
      ],
      "name": "getApproved",
      "outputs": [
        {
          "internalType": "address",
          "name": "",
          "type": "address"
        }
      ],
      "stateMutability": "view",
      "type": "function"
    },
    {
      "inputs": [
        {
          "internalType": "address",
          "name": "owner",
          "type": "address"
        },
        {
          "internalType": "address",
          "name": "operator",
          "type": "address"
        }
      ],
      "name": "isApprovedForAll",
      "outputs": [
        {
          "internalType": "bool",
          "name": "",
          "type": "bool"
        }
      ],
      "stateMutability": "view",
      "type": "function"
    },
    {
      "inputs": [],
      "name": "name",
      "outputs": [
        {
          "internalType": "string",
          "name": "",
          "type": "string"
        }
      ],
      "stateMutability": "view",
      "type": "function"
    },
    {
      "inputs": [],
      "name": "owner",
      "outputs": [
        {
          "internalType": "address",
          "name": "",
          "type": "address"
        }
      ],
      "stateMutability": "view",
      "type": "function"
    },
    {
      "inputs": [
        {
          "internalType": "uint256",
          "name": "tokenId",
          "type": "uint256"
        }
      ],
      "name": "ownerOf",
      "outputs": [
        {
          "internalType": "address",
          "name": "",
          "type": "address"
        }
      ],
      "stateMutability": "view",
      "type": "function"
    },
    {
      "inputs": [],
      "name": "renounceOwnership",
      "outputs": [],
      "stateMutability": "nonpayable",
      "type": "function"
    },
    {
      "inputs": [
        {
          "internalType": "address",
          "name": "from",
          "type": "address"
        },
        {
          "internalType": "address",
          "name": "to",
          "type": "address"
        },
        {
          "internalType": "uint256",
          "name": "tokenId",
          "type": "uint256"
        }
      ],
      "name": "safeTransferFrom",
      "outputs": [],
      "stateMutability": "nonpayable",
      "type": "function"
    },
    {
      "inputs": [
        {
          "internalType": "address",
          "name": "from",
          "type": "address"
        },
        {
          "internalType": "address",
          "name": "to",
          "type": "address"
        },
        {
          "internalType": "uint256",
          "name": "tokenId",
          "type": "uint256"
        },
        {
          "internalType": "bytes",
          "name": "_data",
          "type": "bytes"
        }
      ],
      "name": "safeTransferFrom",
      "outputs": [],
      "stateMutability": "nonpayable",
      "type": "function"
    },
    {
      "inputs": [
        {
          "internalType": "address",
          "name": "operator",
          "type": "address"
        },
        {
          "internalType": "bool",
          "name": "approved",
          "type": "bool"
        }
      ],
      "name": "setApprovalForAll",
      "outputs": [],
      "stateMutability": "nonpayable",
      "type": "function"
    },
    {
      "inputs": [
        {
          "internalType": "bytes4",
          "name": "interfaceId",
          "type": "bytes4"
        }
      ],
      "name": "supportsInterface",
      "outputs": [
        {
          "internalType": "bool",
          "name": "",
          "type": "bool"
        }
      ],
      "stateMutability": "view",
      "type": "function"
    },
    {
      "inputs": [],
      "name": "symbol",
      "outputs": [
        {
          "internalType": "string",
          "name": "",
          "type": "string"
        }
      ],
      "stateMutability": "view",
      "type": "function"
    },
    {
      "inputs": [
        {
          "internalType": "uint256",
          "name": "index",
          "type": "uint256"
        }
      ],
      "name": "tokenByIndex",
      "outputs": [
        {
          "internalType": "uint256",
          "name": "",
          "type": "uint256"
        }
      ],
      "stateMutability": "view",
      "type": "function"
    },
    {
      "inputs": [
        {
          "internalType": "address",
          "name": "owner",
          "type": "address"
        },
        {
          "internalType": "uint256",
          "name": "index",
          "type": "uint256"
        }
      ],
      "name": "tokenOfOwnerByIndex",
      "outputs": [
        {
          "internalType": "uint256",
          "name": "",
          "type": "uint256"
        }
      ],
      "stateMutability": "view",
      "type": "function"
    },
    {
      "inputs": [],
      "name": "totalSupply",
      "outputs": [
        {
          "internalType": "uint256",
          "name": "",
          "type": "uint256"
        }
      ],
      "stateMutability": "view",
      "type": "function"
    },
    {
      "inputs": [
        {
          "internalType": "address",
          "name": "from",
          "type": "address"
        },
        {
          "internalType": "address",
          "name": "to",
          "type": "address"
        },
        {
          "internalType": "uint256",
          "name": "tokenId",
          "type": "uint256"
        }
      ],
      "name": "transferFrom",
      "outputs": [],
      "stateMutability": "nonpayable",
      "type": "function"
    },
    {
      "inputs": [
        {
          "internalType": "address",
          "name": "newOwner",
          "type": "address"
        }
      ],
      "name": "transferOwnership",
      "outputs": [],
      "stateMutability": "nonpayable",
      "type": "function"
    },
    {
      "inputs": [
        {
          "internalType": "uint256",
          "name": "tokenId",
          "type": "uint256"
        }
      ],
      "name": "testClaim",
      "outputs": [],
      "stateMutability": "payable",
      "type": "function"
    },
    {
      "inputs": [],
      "name": "withdrawBank",
      "outputs": [],
      "stateMutability": "payable",
      "type": "function"
    },
    {
      "inputs": [],
      "name": "balancee",
      "outputs": [
        {
          "internalType": "string",
          "name": "",
          "type": "string"
        }
      ],
      "stateMutability": "view",
      "type": "function"
    },
    {
      "inputs": [
        {
          "internalType": "uint256",
          "name": "tokenId",
          "type": "uint256"
        }
      ],
      "name": "tokenURI",
      "outputs": [
        {
          "internalType": "string",
          "name": "",
          "type": "string"
        }
      ],
      "stateMutability": "view",
      "type": "function"
    }
  ],
  "bytecode": "0x60806040523480156200001157600080fd5b506040516200431238038062004312833981810160405281019062000037919062000299565b81818160009080519060200190620000519291906200016b565b5080600190805190602001906200006a9291906200016b565b5050506001600a8190555062000095620000896200009d60201b60201c565b620000a560201b60201c565b5050620004a2565b600033905090565b6000600b60009054906101000a900473ffffffffffffffffffffffffffffffffffffffff16905081600b60006101000a81548173ffffffffffffffffffffffffffffffffffffffff021916908373ffffffffffffffffffffffffffffffffffffffff1602179055508173ffffffffffffffffffffffffffffffffffffffff168173ffffffffffffffffffffffffffffffffffffffff167f8be0079c531659141344cd1fd0a4f28419497f9722a3daafe3b4186f6b6457e060405160405180910390a35050565b8280546200017990620003b3565b90600052602060002090601f0160209004810192826200019d5760008555620001e9565b82601f10620001b857805160ff1916838001178555620001e9565b82800160010185558215620001e9579182015b82811115620001e8578251825591602001919060010190620001cb565b5b509050620001f89190620001fc565b5090565b5b8082111562000217576000816000905550600101620001fd565b5090565b6000620002326200022c8462000347565b6200031e565b90508281526020810184848401111562000251576200025062000482565b5b6200025e8482856200037d565b509392505050565b600082601f8301126200027e576200027d6200047d565b5b8151620002908482602086016200021b565b91505092915050565b60008060408385031215620002b357620002b26200048c565b5b600083015167ffffffffffffffff811115620002d457620002d362000487565b5b620002e28582860162000266565b925050602083015167ffffffffffffffff81111562000306576200030562000487565b5b620003148582860162000266565b9150509250929050565b60006200032a6200033d565b9050620003388282620003e9565b919050565b6000604051905090565b600067ffffffffffffffff8211156200036557620003646200044e565b5b620003708262000491565b9050602081019050919050565b60005b838110156200039d57808201518184015260208101905062000380565b83811115620003ad576000848401525b50505050565b60006002820490506001821680620003cc57607f821691505b60208210811415620003e357620003e26200041f565b5b50919050565b620003f48262000491565b810181811067ffffffffffffffff821117156200041657620004156200044e565b5b80604052505050565b7f4e487b7100000000000000000000000000000000000000000000000000000000600052602260045260246000fd5b7f4e487b7100000000000000000000000000000000000000000000000000000000600052604160045260246000fd5b600080fd5b600080fd5b600080fd5b600080fd5b6000601f19601f8301169050919050565b613e6080620004b26000396000f3fe6080604052600436106101355760003560e01c806370a08231116100ab578063a22cb4651161006f578063a22cb4651461042d578063b88d4fde14610456578063c87b56dd1461047f578063e985e9c5146104bc578063f2fde38b146104f9578063ff7f0cf91461052257610135565b806370a0823114610367578063715018a6146103a45780638da5cb5b146103bb57806395d89b41146103e657806395fe0d861461041157610135565b806323b872dd116100fd57806323b872dd146102335780632f745c591461025c578063328330fb1461029957806342842e0e146102c45780634f6ccce7146102ed5780636352211e1461032a57610135565b806301ffc9a71461013a57806306fdde0314610177578063081812fc146101a2578063095ea7b3146101df57806318160ddd14610208575b600080fd5b34801561014657600080fd5b50610161600480360381019061015c9190612965565b61052c565b60405161016e9190612f0b565b60405180910390f35b34801561018357600080fd5b5061018c6105a6565b6040516101999190612f26565b60405180910390f35b3480156101ae57600080fd5b506101c960048036038101906101c491906129bf565b610638565b6040516101d69190612ea4565b60405180910390f35b3480156101eb57600080fd5b5061020660048036038101906102019190612925565b6106bd565b005b34801561021457600080fd5b5061021d6107d5565b60405161022a9190613188565b60405180910390f35b34801561023f57600080fd5b5061025a6004803603810190610255919061280f565b6107e2565b005b34801561026857600080fd5b50610283600480360381019061027e9190612925565b610842565b6040516102909190613188565b60405180910390f35b3480156102a557600080fd5b506102ae6108e7565b6040516102bb9190612f26565b60405180910390f35b3480156102d057600080fd5b506102eb60048036038101906102e6919061280f565b6108fd565b005b3480156102f957600080fd5b50610314600480360381019061030f91906129bf565b61091d565b6040516103219190613188565b60405180910390f35b34801561033657600080fd5b50610351600480360381019061034c91906129bf565b61098e565b60405161035e9190612ea4565b60405180910390f35b34801561037357600080fd5b5061038e600480360381019061038991906127a2565b610a40565b60405161039b9190613188565b60405180910390f35b3480156103b057600080fd5b506103b9610af8565b005b3480156103c757600080fd5b506103d0610b80565b6040516103dd9190612ea4565b60405180910390f35b3480156103f257600080fd5b506103fb610baa565b6040516104089190612f26565b60405180910390f35b61042b600480360381019061042691906129bf565b610c3c565b005b34801561043957600080fd5b50610454600480360381019061044f91906128e5565b610cb3565b005b34801561046257600080fd5b5061047d60048036038101906104789190612862565b610e34565b005b34801561048b57600080fd5b506104a660048036038101906104a191906129bf565b610e96565b6040516104b39190612f26565b60405180910390f35b3480156104c857600080fd5b506104e360048036038101906104de91906127cf565b61126b565b6040516104f09190612f0b565b60405180910390f35b34801561050557600080fd5b50610520600480360381019061051b91906127a2565b6112ff565b005b61052a6113f7565b005b60007f780e9d63000000000000000000000000000000000000000000000000000000007bffffffffffffffffffffffffffffffffffffffffffffffffffffffff1916827bffffffffffffffffffffffffffffffffffffffffffffffffffffffff1916148061059f575061059e826114c3565b5b9050919050565b6060600080546105b590613407565b80601f01602080910402602001604051908101604052809291908181526020018280546105e190613407565b801561062e5780601f106106035761010080835404028352916020019161062e565b820191906000526020600020905b81548152906001019060200180831161061157829003601f168201915b5050505050905090565b6000610643826115a5565b610682576040517f08c379a0000000000000000000000000000000000000000000000000000000008152600401610679906130a8565b60405180910390fd5b6004600083815260200190815260200160002060009054906101000a900473ffffffffffffffffffffffffffffffffffffffff169050919050565b60006106c88261098e565b90508073ffffffffffffffffffffffffffffffffffffffff168373ffffffffffffffffffffffffffffffffffffffff161415610739576040517f08c379a000000000000000000000000000000000000000000000000000000000815260040161073090613108565b60405180910390fd5b8073ffffffffffffffffffffffffffffffffffffffff16610758611611565b73ffffffffffffffffffffffffffffffffffffffff161480610787575061078681610781611611565b61126b565b5b6107c6576040517f08c379a00000000000000000000000000000000000000000000000000000000081526004016107bd90613028565b60405180910390fd5b6107d08383611619565b505050565b6000600880549050905090565b6107f36107ed611611565b826116d2565b610832576040517f08c379a000000000000000000000000000000000000000000000000000000000815260040161082990613128565b60405180910390fd5b61083d8383836117b0565b505050565b600061084d83610a40565b821061088e576040517f08c379a000000000000000000000000000000000000000000000000000000000815260040161088590612f48565b60405180910390fd5b600660008473ffffffffffffffffffffffffffffffffffffffff1673ffffffffffffffffffffffffffffffffffffffff168152602001908152602001600020600083815260200190815260200160002054905092915050565b606060004790506108f781611a0c565b91505090565b61091883838360405180602001604052806000815250610e34565b505050565b60006109276107d5565b8210610968576040517f08c379a000000000000000000000000000000000000000000000000000000000815260040161095f90613148565b60405180910390fd5b6008828154811061097c5761097b6135a0565b5b90600052602060002001549050919050565b6000806002600084815260200190815260200160002060009054906101000a900473ffffffffffffffffffffffffffffffffffffffff169050600073ffffffffffffffffffffffffffffffffffffffff168173ffffffffffffffffffffffffffffffffffffffff161415610a37576040517f08c379a0000000000000000000000000000000000000000000000000000000008152600401610a2e90613068565b60405180910390fd5b80915050919050565b60008073ffffffffffffffffffffffffffffffffffffffff168273ffffffffffffffffffffffffffffffffffffffff161415610ab1576040517f08c379a0000000000000000000000000000000000000000000000000000000008152600401610aa890613048565b60405180910390fd5b600360008373ffffffffffffffffffffffffffffffffffffffff1673ffffffffffffffffffffffffffffffffffffffff168152602001908152602001600020549050919050565b610b00611611565b73ffffffffffffffffffffffffffffffffffffffff16610b1e610b80565b73ffffffffffffffffffffffffffffffffffffffff1614610b74576040517f08c379a0000000000000000000000000000000000000000000000000000000008152600401610b6b906130c8565b60405180910390fd5b610b7e6000611b6d565b565b6000600b60009054906101000a900473ffffffffffffffffffffffffffffffffffffffff16905090565b606060018054610bb990613407565b80601f0160208091040260200160405190810160405280929190818152602001828054610be590613407565b8015610c325780601f10610c0757610100808354040283529160200191610c32565b820191906000526020600020905b815481529060010190602001808311610c1557829003601f168201915b5050505050905090565b6002600a541415610c82576040517f08c379a0000000000000000000000000000000000000000000000000000000008152600401610c7990613168565b60405180910390fd5b6002600a8190555060013411610c9757600080fd5b610ca8610ca2611611565b82611c33565b6001600a8190555050565b610cbb611611565b73ffffffffffffffffffffffffffffffffffffffff168273ffffffffffffffffffffffffffffffffffffffff161415610d29576040517f08c379a0000000000000000000000000000000000000000000000000000000008152600401610d2090612fe8565b60405180910390fd5b8060056000610d36611611565b73ffffffffffffffffffffffffffffffffffffffff1673ffffffffffffffffffffffffffffffffffffffff16815260200190815260200160002060008473ffffffffffffffffffffffffffffffffffffffff1673ffffffffffffffffffffffffffffffffffffffff16815260200190815260200160002060006101000a81548160ff0219169083151502179055508173ffffffffffffffffffffffffffffffffffffffff16610de3611611565b73ffffffffffffffffffffffffffffffffffffffff167f17307eab39ab6107e8899845ad3d59bd9653f200f220920489ca2b5937696c3183604051610e289190612f0b565b60405180910390a35050565b610e45610e3f611611565b836116d2565b610e84576040517f08c379a0000000000000000000000000000000000000000000000000000000008152600401610e7b90613128565b60405180910390fd5b610e9084848484611c51565b50505050565b6060610ea06126a1565b60405180610140016040528061010b8152602001613d2061010b913981600060098110610ed057610ecf6135a0565b5b60200201819052506040518060400160405280600181526020017f410000000000000000000000000000000000000000000000000000000000000081525081600160098110610f2257610f216135a0565b5b6020020181905250604051806060016040528060288152602001613c686028913981600260098110610f5757610f566135a0565b5b60200201819052506040518060400160405280600181526020017f410000000000000000000000000000000000000000000000000000000000000081525081600360098110610fa957610fa86135a0565b5b6020020181905250604051806060016040528060288152602001613c906028913981600460098110610fde57610fdd6135a0565b5b60200201819052506040518060400160405280600181526020017f4100000000000000000000000000000000000000000000000000000000000000815250816005600981106110305761102f6135a0565b5b6020020181905250604051806060016040528060288152602001613cf86028913981600660098110611065576110646135a0565b5b60200201819052506040518060400160405280600181526020017f4100000000000000000000000000000000000000000000000000000000000000815250816007600981106110b7576110b66135a0565b5b6020020181905250604051806060016040528060288152602001613c4060289139816008600981106110ec576110eb6135a0565b5b602002018190525060008160006009811061110a576111096135a0565b5b602002015182600160098110611123576111226135a0565b5b60200201518360026009811061113c5761113b6135a0565b5b602002015184600360098110611155576111546135a0565b5b60200201518560046009811061116e5761116d6135a0565b5b602002015186600560098110611187576111866135a0565b5b6020020151876006600981106111a05761119f6135a0565b5b6020020151886007600981106111b9576111b86135a0565b5b6020020151896008600981106111d2576111d16135a0565b5b60200201516040516020016111ef99989796959493929190612dbe565b6040516020818303038152906040529050600061123c61120e86611a0c565b61121784611cad565b604051602001611228929190612e3d565b604051602081830303815290604052611cad565b90508060405160200161124f9190612e82565b6040516020818303038152906040529150819350505050919050565b6000600560008473ffffffffffffffffffffffffffffffffffffffff1673ffffffffffffffffffffffffffffffffffffffff16815260200190815260200160002060008373ffffffffffffffffffffffffffffffffffffffff1673ffffffffffffffffffffffffffffffffffffffff16815260200190815260200160002060009054906101000a900460ff16905092915050565b611307611611565b73ffffffffffffffffffffffffffffffffffffffff16611325610b80565b73ffffffffffffffffffffffffffffffffffffffff161461137b576040517f08c379a0000000000000000000000000000000000000000000000000000000008152600401611372906130c8565b60405180910390fd5b600073ffffffffffffffffffffffffffffffffffffffff168173ffffffffffffffffffffffffffffffffffffffff1614156113eb576040517f08c379a00000000000000000000000000000000000000000000000000000000081526004016113e290612f88565b60405180910390fd5b6113f481611b6d565b50565b6113ff611611565b73ffffffffffffffffffffffffffffffffffffffff1661141d610b80565b73ffffffffffffffffffffffffffffffffffffffff1614611473576040517f08c379a000000000000000000000000000000000000000000000000000000000815260040161146a906130c8565b60405180910390fd5b61147b610b80565b73ffffffffffffffffffffffffffffffffffffffff166108fc479081150290604051600060405180830381858888f193505050501580156114c0573d6000803e3d6000fd5b50565b60007f80ac58cd000000000000000000000000000000000000000000000000000000007bffffffffffffffffffffffffffffffffffffffffffffffffffffffff1916827bffffffffffffffffffffffffffffffffffffffffffffffffffffffff1916148061158e57507f5b5e139f000000000000000000000000000000000000000000000000000000007bffffffffffffffffffffffffffffffffffffffffffffffffffffffff1916827bffffffffffffffffffffffffffffffffffffffffffffffffffffffff1916145b8061159e575061159d82611e45565b5b9050919050565b60008073ffffffffffffffffffffffffffffffffffffffff166002600084815260200190815260200160002060009054906101000a900473ffffffffffffffffffffffffffffffffffffffff1673ffffffffffffffffffffffffffffffffffffffff1614159050919050565b600033905090565b816004600083815260200190815260200160002060006101000a81548173ffffffffffffffffffffffffffffffffffffffff021916908373ffffffffffffffffffffffffffffffffffffffff160217905550808273ffffffffffffffffffffffffffffffffffffffff1661168c8361098e565b73ffffffffffffffffffffffffffffffffffffffff167f8c5be1e5ebec7d5bd14f71427d1e84f3dd0314c0f7b2291e5b200ac8c7c3b92560405160405180910390a45050565b60006116dd826115a5565b61171c576040517f08c379a000000000000000000000000000000000000000000000000000000000815260040161171390613008565b60405180910390fd5b60006117278361098e565b90508073ffffffffffffffffffffffffffffffffffffffff168473ffffffffffffffffffffffffffffffffffffffff16148061179657508373ffffffffffffffffffffffffffffffffffffffff1661177e84610638565b73ffffffffffffffffffffffffffffffffffffffff16145b806117a757506117a6818561126b565b5b91505092915050565b8273ffffffffffffffffffffffffffffffffffffffff166117d08261098e565b73ffffffffffffffffffffffffffffffffffffffff1614611826576040517f08c379a000000000000000000000000000000000000000000000000000000000815260040161181d906130e8565b60405180910390fd5b600073ffffffffffffffffffffffffffffffffffffffff168273ffffffffffffffffffffffffffffffffffffffff161415611896576040517f08c379a000000000000000000000000000000000000000000000000000000000815260040161188d90612fc8565b60405180910390fd5b6118a1838383611eaf565b6118ac600082611619565b6001600360008573ffffffffffffffffffffffffffffffffffffffff1673ffffffffffffffffffffffffffffffffffffffff16815260200190815260200160002060008282546118fc919061331d565b925050819055506001600360008473ffffffffffffffffffffffffffffffffffffffff1673ffffffffffffffffffffffffffffffffffffffff1681526020019081526020016000206000828254611953919061323c565b92505081905550816002600083815260200190815260200160002060006101000a81548173ffffffffffffffffffffffffffffffffffffffff021916908373ffffffffffffffffffffffffffffffffffffffff160217905550808273ffffffffffffffffffffffffffffffffffffffff168473ffffffffffffffffffffffffffffffffffffffff167fddf252ad1be2c89b69c2b068fc378daa952ba7f163c4a11628f55a4df523b3ef60405160405180910390a4505050565b60606000821415611a54576040518060400160405280600181526020017f30000000000000000000000000000000000000000000000000000000000000008152509050611b68565b600082905060005b60008214611a86578080611a6f9061346a565b915050600a82611a7f9190613292565b9150611a5c565b60008167ffffffffffffffff811115611aa257611aa16135cf565b5b6040519080825280601f01601f191660200182016040528015611ad45781602001600182028036833780820191505090505b5090505b60008514611b6157600182611aed919061331d565b9150600a85611afc91906134b3565b6030611b08919061323c565b60f81b818381518110611b1e57611b1d6135a0565b5b60200101907effffffffffffffffffffffffffffffffffffffffffffffffffffffffffffff1916908160001a905350600a85611b5a9190613292565b9450611ad8565b8093505050505b919050565b6000600b60009054906101000a900473ffffffffffffffffffffffffffffffffffffffff16905081600b60006101000a81548173ffffffffffffffffffffffffffffffffffffffff021916908373ffffffffffffffffffffffffffffffffffffffff1602179055508173ffffffffffffffffffffffffffffffffffffffff168173ffffffffffffffffffffffffffffffffffffffff167f8be0079c531659141344cd1fd0a4f28419497f9722a3daafe3b4186f6b6457e060405160405180910390a35050565b611c4d828260405180602001604052806000815250611fc3565b5050565b611c5c8484846117b0565b611c688484848461201e565b611ca7576040517f08c379a0000000000000000000000000000000000000000000000000000000008152600401611c9e90612f68565b60405180910390fd5b50505050565b60606000825190506000811415611cd65760405180602001604052806000815250915050611e40565b60006003600283611ce7919061323c565b611cf19190613292565b6004611cfd91906132c3565b90506000602082611d0e919061323c565b67ffffffffffffffff811115611d2757611d266135cf565b5b6040519080825280601f01601f191660200182016040528015611d595781602001600182028036833780820191505090505b5090506000604051806060016040528060408152602001613cb8604091399050600181016020830160005b86811015611dfd5760038101905062ffffff818a015116603f8160121c168401518060081b905060ff603f83600c1c1686015116810190508060081b905060ff603f8360061c1686015116810190508060081b905060ff603f831686015116810190508060e01b90508084526004840193505050611d84565b506003860660018114611e175760028114611e2757611e32565b613d3d60f01b6002830352611e32565b603d60f81b60018303525b508484525050819450505050505b919050565b60007f01ffc9a7000000000000000000000000000000000000000000000000000000007bffffffffffffffffffffffffffffffffffffffffffffffffffffffff1916827bffffffffffffffffffffffffffffffffffffffffffffffffffffffff1916149050919050565b611eba8383836121b5565b600073ffffffffffffffffffffffffffffffffffffffff168373ffffffffffffffffffffffffffffffffffffffff161415611efd57611ef8816121ba565b611f3c565b8173ffffffffffffffffffffffffffffffffffffffff168373ffffffffffffffffffffffffffffffffffffffff1614611f3b57611f3a8382612203565b5b5b600073ffffffffffffffffffffffffffffffffffffffff168273ffffffffffffffffffffffffffffffffffffffff161415611f7f57611f7a81612370565b611fbe565b8273ffffffffffffffffffffffffffffffffffffffff168273ffffffffffffffffffffffffffffffffffffffff1614611fbd57611fbc8282612441565b5b5b505050565b611fcd83836124c0565b611fda600084848461201e565b612019576040517f08c379a000000000000000000000000000000000000000000000000000000000815260040161201090612f68565b60405180910390fd5b505050565b600061203f8473ffffffffffffffffffffffffffffffffffffffff1661268e565b156121a8578373ffffffffffffffffffffffffffffffffffffffff1663150b7a02612068611611565b8786866040518563ffffffff1660e01b815260040161208a9493929190612ebf565b602060405180830381600087803b1580156120a457600080fd5b505af19250505080156120d557506040513d601f19601f820116820180604052508101906120d29190612992565b60015b612158573d8060008114612105576040519150601f19603f3d011682016040523d82523d6000602084013e61210a565b606091505b50600081511415612150576040517f08c379a000000000000000000000000000000000000000000000000000000000815260040161214790612f68565b60405180910390fd5b805181602001fd5b63150b7a0260e01b7bffffffffffffffffffffffffffffffffffffffffffffffffffffffff1916817bffffffffffffffffffffffffffffffffffffffffffffffffffffffff1916149150506121ad565b600190505b949350505050565b505050565b6008805490506009600083815260200190815260200160002081905550600881908060018154018082558091505060019003906000526020600020016000909190919091505550565b6000600161221084610a40565b61221a919061331d565b90506000600760008481526020019081526020016000205490508181146122ff576000600660008673ffffffffffffffffffffffffffffffffffffffff1673ffffffffffffffffffffffffffffffffffffffff168152602001908152602001600020600084815260200190815260200160002054905080600660008773ffffffffffffffffffffffffffffffffffffffff1673ffffffffffffffffffffffffffffffffffffffff168152602001908152602001600020600084815260200190815260200160002081905550816007600083815260200190815260200160002081905550505b6007600084815260200190815260200160002060009055600660008573ffffffffffffffffffffffffffffffffffffffff1673ffffffffffffffffffffffffffffffffffffffff16815260200190815260200160002060008381526020019081526020016000206000905550505050565b60006001600880549050612384919061331d565b90506000600960008481526020019081526020016000205490506000600883815481106123b4576123b36135a0565b5b9060005260206000200154905080600883815481106123d6576123d56135a0565b5b90600052602060002001819055508160096000838152602001908152602001600020819055506009600085815260200190815260200160002060009055600880548061242557612424613571565b5b6001900381819060005260206000200160009055905550505050565b600061244c83610a40565b905081600660008573ffffffffffffffffffffffffffffffffffffffff1673ffffffffffffffffffffffffffffffffffffffff168152602001908152602001600020600083815260200190815260200160002081905550806007600084815260200190815260200160002081905550505050565b600073ffffffffffffffffffffffffffffffffffffffff168273ffffffffffffffffffffffffffffffffffffffff161415612530576040517f08c379a000000000000000000000000000000000000000000000000000000000815260040161252790613088565b60405180910390fd5b612539816115a5565b15612579576040517f08c379a000000000000000000000000000000000000000000000000000000000815260040161257090612fa8565b60405180910390fd5b61258560008383611eaf565b6001600360008473ffffffffffffffffffffffffffffffffffffffff1673ffffffffffffffffffffffffffffffffffffffff16815260200190815260200160002060008282546125d5919061323c565b92505081905550816002600083815260200190815260200160002060006101000a81548173ffffffffffffffffffffffffffffffffffffffff021916908373ffffffffffffffffffffffffffffffffffffffff160217905550808273ffffffffffffffffffffffffffffffffffffffff16600073ffffffffffffffffffffffffffffffffffffffff167fddf252ad1be2c89b69c2b068fc378daa952ba7f163c4a11628f55a4df523b3ef60405160405180910390a45050565b600080823b905060008111915050919050565b6040518061012001604052806009905b60608152602001906001900390816126b15790505090565b60006126dc6126d7846131c8565b6131a3565b9050828152602081018484840111156126f8576126f7613603565b5b6127038482856133c5565b509392505050565b60008135905061271a81613be3565b92915050565b60008135905061272f81613bfa565b92915050565b60008135905061274481613c11565b92915050565b60008151905061275981613c11565b92915050565b600082601f830112612774576127736135fe565b5b81356127848482602086016126c9565b91505092915050565b60008135905061279c81613c28565b92915050565b6000602082840312156127b8576127b761360d565b5b60006127c68482850161270b565b91505092915050565b600080604083850312156127e6576127e561360d565b5b60006127f48582860161270b565b92505060206128058582860161270b565b9150509250929050565b6000806000606084860312156128285761282761360d565b5b60006128368682870161270b565b93505060206128478682870161270b565b92505060406128588682870161278d565b9150509250925092565b6000806000806080858703121561287c5761287b61360d565b5b600061288a8782880161270b565b945050602061289b8782880161270b565b93505060406128ac8782880161278d565b925050606085013567ffffffffffffffff8111156128cd576128cc613608565b5b6128d98782880161275f565b91505092959194509250565b600080604083850312156128fc576128fb61360d565b5b600061290a8582860161270b565b925050602061291b85828601612720565b9150509250929050565b6000806040838503121561293c5761293b61360d565b5b600061294a8582860161270b565b925050602061295b8582860161278d565b9150509250929050565b60006020828403121561297b5761297a61360d565b5b600061298984828501612735565b91505092915050565b6000602082840312156129a8576129a761360d565b5b60006129b68482850161274a565b91505092915050565b6000602082840312156129d5576129d461360d565b5b60006129e38482850161278d565b91505092915050565b6129f581613351565b82525050565b612a0481613363565b82525050565b6000612a15826131f9565b612a1f818561320f565b9350612a2f8185602086016133d4565b612a3881613612565b840191505092915050565b6000612a4e82613204565b612a588185613220565b9350612a688185602086016133d4565b612a7181613612565b840191505092915050565b6000612a8782613204565b612a918185613231565b9350612aa18185602086016133d4565b80840191505092915050565b6000612aba600f83613231565b9150612ac582613623565b600f82019050919050565b6000612add602b83613220565b9150612ae88261364c565b604082019050919050565b6000612b00603283613220565b9150612b0b8261369b565b604082019050919050565b6000612b23602683613220565b9150612b2e826136ea565b604082019050919050565b6000612b46601c83613220565b9150612b5182613739565b602082019050919050565b6000612b69602483613220565b9150612b7482613762565b604082019050919050565b6000612b8c601983613220565b9150612b97826137b1565b602082019050919050565b6000612baf602c83613220565b9150612bba826137da565b604082019050919050565b6000612bd2603883613220565b9150612bdd82613829565b604082019050919050565b6000612bf5602a83613220565b9150612c0082613878565b604082019050919050565b6000612c18602983613220565b9150612c23826138c7565b604082019050919050565b6000612c3b600283613231565b9150612c4682613916565b600282019050919050565b6000612c5e602083613220565b9150612c698261393f565b602082019050919050565b6000612c81602c83613220565b9150612c8c82613968565b604082019050919050565b6000612ca4602083613220565b9150612caf826139b7565b602082019050919050565b6000612cc7604d83613231565b9150612cd2826139e0565b604d82019050919050565b6000612cea602983613220565b9150612cf582613a55565b604082019050919050565b6000612d0d602183613220565b9150612d1882613aa4565b604082019050919050565b6000612d30601d83613231565b9150612d3b82613af3565b601d82019050919050565b6000612d53603183613220565b9150612d5e82613b1c565b604082019050919050565b6000612d76602c83613220565b9150612d8182613b6b565b604082019050919050565b6000612d99601f83613220565b9150612da482613bba565b602082019050919050565b612db8816133bb565b82525050565b6000612dca828c612a7c565b9150612dd6828b612a7c565b9150612de2828a612a7c565b9150612dee8289612a7c565b9150612dfa8288612a7c565b9150612e068287612a7c565b9150612e128286612a7c565b9150612e1e8285612a7c565b9150612e2a8284612a7c565b91508190509a9950505050505050505050565b6000612e4882612aad565b9150612e548285612a7c565b9150612e5f82612cba565b9150612e6b8284612a7c565b9150612e7682612c2e565b91508190509392505050565b6000612e8d82612d23565b9150612e998284612a7c565b915081905092915050565b6000602082019050612eb960008301846129ec565b92915050565b6000608082019050612ed460008301876129ec565b612ee160208301866129ec565b612eee6040830185612daf565b8181036060830152612f008184612a0a565b905095945050505050565b6000602082019050612f2060008301846129fb565b92915050565b60006020820190508181036000830152612f408184612a43565b905092915050565b60006020820190508181036000830152612f6181612ad0565b9050919050565b60006020820190508181036000830152612f8181612af3565b9050919050565b60006020820190508181036000830152612fa181612b16565b9050919050565b60006020820190508181036000830152612fc181612b39565b9050919050565b60006020820190508181036000830152612fe181612b5c565b9050919050565b6000602082019050818103600083015261300181612b7f565b9050919050565b6000602082019050818103600083015261302181612ba2565b9050919050565b6000602082019050818103600083015261304181612bc5565b9050919050565b6000602082019050818103600083015261306181612be8565b9050919050565b6000602082019050818103600083015261308181612c0b565b9050919050565b600060208201905081810360008301526130a181612c51565b9050919050565b600060208201905081810360008301526130c181612c74565b9050919050565b600060208201905081810360008301526130e181612c97565b9050919050565b6000602082019050818103600083015261310181612cdd565b9050919050565b6000602082019050818103600083015261312181612d00565b9050919050565b6000602082019050818103600083015261314181612d46565b9050919050565b6000602082019050818103600083015261316181612d69565b9050919050565b6000602082019050818103600083015261318181612d8c565b9050919050565b600060208201905061319d6000830184612daf565b92915050565b60006131ad6131be565b90506131b98282613439565b919050565b6000604051905090565b600067ffffffffffffffff8211156131e3576131e26135cf565b5b6131ec82613612565b9050602081019050919050565b600081519050919050565b600081519050919050565b600082825260208201905092915050565b600082825260208201905092915050565b600081905092915050565b6000613247826133bb565b9150613252836133bb565b9250827fffffffffffffffffffffffffffffffffffffffffffffffffffffffffffffffff03821115613287576132866134e4565b5b828201905092915050565b600061329d826133bb565b91506132a8836133bb565b9250826132b8576132b7613513565b5b828204905092915050565b60006132ce826133bb565b91506132d9836133bb565b9250817fffffffffffffffffffffffffffffffffffffffffffffffffffffffffffffffff0483118215151615613312576133116134e4565b5b828202905092915050565b6000613328826133bb565b9150613333836133bb565b925082821015613346576133456134e4565b5b828203905092915050565b600061335c8261339b565b9050919050565b60008115159050919050565b60007fffffffff0000000000000000000000000000000000000000000000000000000082169050919050565b600073ffffffffffffffffffffffffffffffffffffffff82169050919050565b6000819050919050565b82818337600083830152505050565b60005b838110156133f25780820151818401526020810190506133d7565b83811115613401576000848401525b50505050565b6000600282049050600182168061341f57607f821691505b6020821081141561343357613432613542565b5b50919050565b61344282613612565b810181811067ffffffffffffffff82111715613461576134606135cf565b5b80604052505050565b6000613475826133bb565b91507fffffffffffffffffffffffffffffffffffffffffffffffffffffffffffffffff8214156134a8576134a76134e4565b5b600182019050919050565b60006134be826133bb565b91506134c9836133bb565b9250826134d9576134d8613513565b5b828206905092915050565b7f4e487b7100000000000000000000000000000000000000000000000000000000600052601160045260246000fd5b7f4e487b7100000000000000000000000000000000000000000000000000000000600052601260045260246000fd5b7f4e487b7100000000000000000000000000000000000000000000000000000000600052602260045260246000fd5b7f4e487b7100000000000000000000000000000000000000000000000000000000600052603160045260246000fd5b7f4e487b7100000000000000000000000000000000000000000000000000000000600052603260045260246000fd5b7f4e487b7100000000000000000000000000000000000000000000000000000000600052604160045260246000fd5b600080fd5b600080fd5b600080fd5b600080fd5b6000601f19601f8301169050919050565b7f7b226e616d65223a202274657374200000000000000000000000000000000000600082015250565b7f455243373231456e756d657261626c653a206f776e657220696e646578206f7560008201527f74206f6620626f756e6473000000000000000000000000000000000000000000602082015250565b7f4552433732313a207472616e7366657220746f206e6f6e20455243373231526560008201527f63656976657220696d706c656d656e7465720000000000000000000000000000602082015250565b7f4f776e61626c653a206e6577206f776e657220697320746865207a65726f206160008201527f6464726573730000000000000000000000000000000000000000000000000000602082015250565b7f4552433732313a20746f6b656e20616c7265616479206d696e74656400000000600082015250565b7f4552433732313a207472616e7366657220746f20746865207a65726f2061646460008201527f7265737300000000000000000000000000000000000000000000000000000000602082015250565b7f4552433732313a20617070726f766520746f2063616c6c657200000000000000600082015250565b7f4552433732313a206f70657261746f7220717565727920666f72206e6f6e657860008201527f697374656e7420746f6b656e0000000000000000000000000000000000000000602082015250565b7f4552433732313a20617070726f76652063616c6c6572206973206e6f74206f7760008201527f6e6572206e6f7220617070726f76656420666f7220616c6c0000000000000000602082015250565b7f4552433732313a2062616c616e636520717565727920666f7220746865207a6560008201527f726f206164647265737300000000000000000000000000000000000000000000602082015250565b7f4552433732313a206f776e657220717565727920666f72206e6f6e657869737460008201527f656e7420746f6b656e0000000000000000000000000000000000000000000000602082015250565b7f227d000000000000000000000000000000000000000000000000000000000000600082015250565b7f4552433732313a206d696e7420746f20746865207a65726f2061646472657373600082015250565b7f4552433732313a20617070726f76656420717565727920666f72206e6f6e657860008201527f697374656e7420746f6b656e0000000000000000000000000000000000000000602082015250565b7f4f776e61626c653a2063616c6c6572206973206e6f7420746865206f776e6572600082015250565b7f222c20226465736372697074696f6e223a20227468697320697320612074657360008201527f7420636f696e222c2022696d616765223a2022646174613a696d6167652f737660208201527f672b786d6c3b6261736536342c00000000000000000000000000000000000000604082015250565b7f4552433732313a207472616e73666572206f6620746f6b656e2074686174206960008201527f73206e6f74206f776e0000000000000000000000000000000000000000000000602082015250565b7f4552433732313a20617070726f76616c20746f2063757272656e74206f776e6560008201527f7200000000000000000000000000000000000000000000000000000000000000602082015250565b7f646174613a6170706c69636174696f6e2f6a736f6e3b6261736536342c000000600082015250565b7f4552433732313a207472616e736665722063616c6c6572206973206e6f74206f60008201527f776e6572206e6f7220617070726f766564000000000000000000000000000000602082015250565b7f455243373231456e756d657261626c653a20676c6f62616c20696e646578206f60008201527f7574206f6620626f756e64730000000000000000000000000000000000000000602082015250565b7f5265656e7472616e637947756172643a207265656e7472616e742063616c6c00600082015250565b613bec81613351565b8114613bf757600080fd5b50565b613c0381613363565b8114613c0e57600080fd5b50565b613c1a8161336f565b8114613c2557600080fd5b50565b613c31816133bb565b8114613c3c57600080fd5b5056fe3c2f746578743e3c7465787420783d2237352220793d2234302220636c6173733d2262617365223e3c2f746578743e3c7465787420783d2231352220793d2234302220636c6173733d2262617365223e3c2f746578743e3c7465787420783d2233352220793d2234302220636c6173733d2262617365223e4142434445464748494a4b4c4d4e4f505152535455565758595a6162636465666768696a6b6c6d6e6f707172737475767778797a303132333435363738392b2f3c2f746578743e3c7465787420783d2235352220793d2234302220636c6173733d2262617365223e3c73766720786d6c6e733d22687474703a2f2f7777772e77332e6f72672f323030302f73766722207072657365727665417370656374526174696f3d22784d696e594d696e206d656574222076696577426f783d2230203020313030203530223e3c7374796c653e2e62617365207b2066696c6c3a2077686974653b20666f6e742d66616d696c793a2073657269663b20666f6e742d73697a653a20313470783b207d3c2f7374796c653e3c726563742077696474683d223130302522206865696768743d2231303025222066696c6c3d22626c61636b22202f3e3c7465787420783d2232302220793d2231352220636c6173733d2262617365223e574f52442e2e2e3f3c2f746578743ea264697066735822122013d9173054b760cfa88b040ec87a9b6a299534c865077c5bc5199676c0785fe064736f6c63430008060033",
  "immutableReferences": {},
  "source": "// SPDX-License-Identifier: MIT\r\npragma solidity 0.8.6;\r\n\r\nimport \"@openzeppelin/contracts/token/ERC721/extensions/ERC721Enumerable.sol\";\r\nimport \"@openzeppelin/contracts/security/ReentrancyGuard.sol\";\r\nimport \"@openzeppelin/contracts/access/Ownable.sol\";\r\n\r\ncontract TestCoin is ERC721Enumerable, ReentrancyGuard, Ownable {\r\n\t\r\n\t\r\n\t\r\n\tconstructor (string memory _name, string memory _symbol) ERC721(_name, _symbol) Ownable()\r\n    {\r\n\t\t\r\n    }\r\n\t\r\n\t\r\n\tfunction testClaim(uint256 tokenId) public payable nonReentrant {\r\n\t\trequire(msg.value > 1);\r\n\t\t///deposit(msg.value);\r\n\t\t\r\n\t\t///owner.transfer(msg.value);\r\n\t\t_safeMint(_msgSender(), tokenId);\r\n\t}\r\n\t\r\n\tfunction withdrawBank() public payable onlyOwner {\r\n\t\t//payable(msg.sender).transfer(this.balance);\r\n\t\t\r\n\t\t//this.withdraw();\r\n\t\tpayable(owner()).transfer(address(this).balance);\r\n\r\n\t}\r\n\t\r\n\tfunction balancee() public view returns(string memory) {\r\n\t\tuint256 amount = address(this).balance;\r\n\t\t\r\n\t\treturn toString(amount);\r\n\t}\r\n\t\r\n\tfunction random(string memory input) internal pure returns (uint256) {\r\n        return uint256(keccak256(abi.encodePacked(input)));\r\n    }\r\n\t\r\n\t//uses a number, tokenId or # is recomended, and a string to generate a random number\r\n\tfunction getrandom(uint256 tokenId, string memory keyPrefix) internal view returns (uint256) {\r\n        uint256 rand = random(string(abi.encodePacked(keyPrefix, toString(tokenId))));\r\n\t\treturn rand;\r\n\t\t}\r\n\t\t\r\n\t\t\r\n\t\t//MIT license\r\n\tfunction toString(uint256 value) internal pure returns (string memory) {\r\n       \r\n        if (value == 0) {\r\n            return \"0\";\r\n        }\r\n        uint256 temp = value;\r\n        uint256 digits;\r\n        while (temp != 0) {\r\n            digits++;\r\n            temp /= 10;\r\n        }\r\n        bytes memory buffer = new bytes(digits);\r\n        while (value != 0) {\r\n            digits -= 1;\r\n            buffer[digits] = bytes1(uint8(48 + uint256(value % 10)));\r\n            value /= 10;\r\n        }\r\n        return string(buffer);\r\n    }\r\n\t\r\n\tfunction tokenURI(uint256 tokenId) public view override returns (string memory) {\r\n        string[9] memory parts;\r\n        parts[0] = '<svg xmlns=\"http://www.w3.org/2000/svg\" preserveAspectRatio=\"xMinYMin meet\" viewBox=\"0 0 100 50\"><style>.base { fill: white; font-family: serif; font-size: 14px; }</style><rect width=\"100%\" height=\"100%\" fill=\"black\" /><text x=\"20\" y=\"15\" class=\"base\">WORD...?</text>';\r\n\r\n        parts[1] = 'A';\r\n\r\n        parts[2] = '</text><text x=\"15\" y=\"40\" class=\"base\">';\r\n\r\n        parts[3] = 'A';\r\n\r\n        parts[4] = '</text><text x=\"35\" y=\"40\" class=\"base\">';\r\n\r\n        parts[5] = 'A';\r\n\r\n        parts[6] = '</text><text x=\"55\" y=\"40\" class=\"base\">';\r\n\r\n        parts[7] = 'A';\r\n\r\n        parts[8] = '</text><text x=\"75\" y=\"40\" class=\"base\">';\r\n\r\n\r\n        string memory output = string(abi.encodePacked(parts[0], parts[1], parts[2], parts[3], parts[4], parts[5], parts[6], parts[7], parts[8]));\r\n        \r\n\r\n        string memory json = Base64.encode(\r\n            bytes(\r\n                string(\r\n                    abi.encodePacked(\r\n                        '{\"name\": \"test ',\r\n                        toString(tokenId),\r\n                        '\", \"description\": \"this is a test coin\", \"image\": \"data:image/svg+xml;base64,',\r\n                        Base64.encode(bytes(output)),\r\n                        '\"}'\r\n                    )\r\n                )\r\n            )\r\n        );\r\n        output = string(abi.encodePacked(\"data:application/json;base64,\", json));\r\n\r\n        return output;\r\n    }\r\n\t\r\n}\r\n\r\n/// [MIT License]\r\n/// @title Base64\r\n/// @notice Provides a function for encoding some bytes in base64\r\n/// @author Brecht Devos <brecht@loopring.org>\r\nlibrary Base64 {\r\n    bytes internal constant TABLE = \"ABCDEFGHIJKLMNOPQRSTUVWXYZabcdefghijklmnopqrstuvwxyz0123456789+/\";\r\n\r\n    /// @notice Encodes some bytes to the base64 representation\r\n    function encode(bytes memory data) internal pure returns (string memory) {\r\n        uint256 len = data.length;\r\n        if (len == 0) return \"\";\r\n\r\n        // multiply by 4/3 rounded up\r\n        uint256 encodedLen = 4 * ((len + 2) / 3);\r\n\r\n        // Add some extra buffer at the end\r\n        bytes memory result = new bytes(encodedLen + 32);\r\n\r\n        bytes memory table = TABLE;\r\n\r\n        assembly {\r\n            let tablePtr := add(table, 1)\r\n            let resultPtr := add(result, 32)\r\n\r\n            for {\r\n                let i := 0\r\n            } lt(i, len) {\r\n\r\n            } {\r\n                i := add(i, 3)\r\n                let input := and(mload(add(data, i)), 0xffffff)\r\n\r\n                let out := mload(add(tablePtr, and(shr(18, input), 0x3F)))\r\n                out := shl(8, out)\r\n                out := add(out, and(mload(add(tablePtr, and(shr(12, input), 0x3F))), 0xFF))\r\n                out := shl(8, out)\r\n                out := add(out, and(mload(add(tablePtr, and(shr(6, input), 0x3F))), 0xFF))\r\n                out := shl(8, out)\r\n                out := add(out, and(mload(add(tablePtr, and(input, 0x3F))), 0xFF))\r\n                out := shl(224, out)\r\n\r\n                mstore(resultPtr, out)\r\n\r\n                resultPtr := add(resultPtr, 4)\r\n            }\r\n\r\n            switch mod(len, 3)\r\n            case 1 {\r\n                mstore(sub(resultPtr, 2), shl(240, 0x3d3d))\r\n            }\r\n            case 2 {\r\n                mstore(sub(resultPtr, 1), shl(248, 0x3d))\r\n            }\r\n\r\n            mstore(result, encodedLen)\r\n        }\r\n\r\n        return string(result);\r\n    }\r\n}",
  "sourcePath": "D:\\HDD Documents\\GitHub\\testcoin\\contracts\\TestCoin.sol",
  "compiler": {
    "name": "solc",
    "version": "0.8.6+commit.11564f7e.Emscripten.clang"
  },
  "schemaVersion": "3.4.3",
  "updatedAt": "2021-10-29T02:29:34.302Z",
  "devdoc": {
    "kind": "dev",
    "methods": {
      "approve(address,uint256)": {
        "details": "See {IERC721-approve}."
      },
      "balanceOf(address)": {
        "details": "See {IERC721-balanceOf}."
      },
      "getApproved(uint256)": {
        "details": "See {IERC721-getApproved}."
      },
      "isApprovedForAll(address,address)": {
        "details": "See {IERC721-isApprovedForAll}."
      },
      "name()": {
        "details": "See {IERC721Metadata-name}."
      },
      "owner()": {
        "details": "Returns the address of the current owner."
      },
      "ownerOf(uint256)": {
        "details": "See {IERC721-ownerOf}."
      },
      "renounceOwnership()": {
        "details": "Leaves the contract without owner. It will not be possible to call `onlyOwner` functions anymore. Can only be called by the current owner. NOTE: Renouncing ownership will leave the contract without an owner, thereby removing any functionality that is only available to the owner."
      },
      "safeTransferFrom(address,address,uint256)": {
        "details": "See {IERC721-safeTransferFrom}."
      },
      "safeTransferFrom(address,address,uint256,bytes)": {
        "details": "See {IERC721-safeTransferFrom}."
      },
      "setApprovalForAll(address,bool)": {
        "details": "See {IERC721-setApprovalForAll}."
      },
      "supportsInterface(bytes4)": {
        "details": "See {IERC165-supportsInterface}."
      },
      "symbol()": {
        "details": "See {IERC721Metadata-symbol}."
      },
      "tokenByIndex(uint256)": {
        "details": "See {IERC721Enumerable-tokenByIndex}."
      },
      "tokenOfOwnerByIndex(address,uint256)": {
        "details": "See {IERC721Enumerable-tokenOfOwnerByIndex}."
      },
      "tokenURI(uint256)": {
        "details": "See {IERC721Metadata-tokenURI}."
      },
      "totalSupply()": {
        "details": "See {IERC721Enumerable-totalSupply}."
      },
      "transferFrom(address,address,uint256)": {
        "details": "See {IERC721-transferFrom}."
      },
      "transferOwnership(address)": {
        "details": "Transfers ownership of the contract to a new account (`newOwner`). Can only be called by the current owner."
      }
    },
    "version": 1
  },
  "userdoc": {
    "kind": "user",
    "methods": {},
    "version": 1
  }
}